{
  "contractName": "ERC721MintableComplete",
  "abi": [
    {
      "inputs": [],
      "stateMutability": "nonpayable",
      "type": "constructor"
    },
    {
      "anonymous": false,
      "inputs": [
        {
          "indexed": true,
          "internalType": "address",
          "name": "owner",
          "type": "address"
        },
        {
          "indexed": true,
          "internalType": "address",
          "name": "approved",
          "type": "address"
        },
        {
          "indexed": true,
          "internalType": "uint256",
          "name": "tokenId",
          "type": "uint256"
        }
      ],
      "name": "Approval",
      "type": "event"
    },
    {
      "anonymous": false,
      "inputs": [
        {
          "indexed": true,
          "internalType": "address",
          "name": "owner",
          "type": "address"
        },
        {
          "indexed": true,
          "internalType": "address",
          "name": "operator",
          "type": "address"
        },
        {
          "indexed": false,
          "internalType": "bool",
          "name": "approved",
          "type": "bool"
        }
      ],
      "name": "ApprovalForAll",
      "type": "event"
    },
    {
      "anonymous": false,
      "inputs": [
        {
          "indexed": false,
          "internalType": "address",
          "name": "newOwner",
          "type": "address"
        }
      ],
      "name": "OwnershipTransferred",
      "type": "event"
    },
    {
      "anonymous": false,
      "inputs": [],
      "name": "Paused",
      "type": "event"
    },
    {
      "anonymous": false,
      "inputs": [
        {
          "indexed": true,
          "internalType": "address",
          "name": "from",
          "type": "address"
        },
        {
          "indexed": true,
          "internalType": "address",
          "name": "to",
          "type": "address"
        },
        {
          "indexed": true,
          "internalType": "uint256",
          "name": "tokenId",
          "type": "uint256"
        }
      ],
      "name": "Transfer",
      "type": "event"
    },
    {
      "anonymous": false,
      "inputs": [],
      "name": "Unpaused",
      "type": "event"
    },
    {
      "inputs": [
        {
          "internalType": "address",
          "name": "to",
          "type": "address"
        },
        {
          "internalType": "uint256",
          "name": "tokenId",
          "type": "uint256"
        }
      ],
      "name": "approve",
      "outputs": [],
      "stateMutability": "nonpayable",
      "type": "function"
    },
    {
      "inputs": [
        {
          "internalType": "address",
          "name": "owner",
          "type": "address"
        }
      ],
      "name": "balanceOf",
      "outputs": [
        {
          "internalType": "uint256",
          "name": "",
          "type": "uint256"
        }
      ],
      "stateMutability": "view",
      "type": "function",
      "constant": true
    },
    {
      "inputs": [],
      "name": "baseTokenURI",
      "outputs": [
        {
          "internalType": "string",
          "name": "",
          "type": "string"
        }
      ],
      "stateMutability": "view",
      "type": "function",
      "constant": true
    },
    {
      "inputs": [],
      "name": "contractOwner",
      "outputs": [
        {
          "internalType": "address",
          "name": "",
          "type": "address"
        }
      ],
      "stateMutability": "view",
      "type": "function",
      "constant": true
    },
    {
      "inputs": [
        {
          "internalType": "uint256",
          "name": "tokenId",
          "type": "uint256"
        }
      ],
      "name": "getApproved",
      "outputs": [
        {
          "internalType": "address",
          "name": "",
          "type": "address"
        }
      ],
      "stateMutability": "view",
      "type": "function",
      "constant": true
    },
    {
      "inputs": [
        {
          "internalType": "address",
          "name": "owner",
          "type": "address"
        },
        {
          "internalType": "address",
          "name": "operator",
          "type": "address"
        }
      ],
      "name": "isApprovedForAll",
      "outputs": [
        {
          "internalType": "bool",
          "name": "",
          "type": "bool"
        }
      ],
      "stateMutability": "view",
      "type": "function",
      "constant": true
    },
    {
      "inputs": [],
      "name": "name",
      "outputs": [
        {
          "internalType": "string",
          "name": "",
          "type": "string"
        }
      ],
      "stateMutability": "view",
      "type": "function",
      "constant": true
    },
    {
      "inputs": [
        {
          "internalType": "uint256",
          "name": "tokenId",
          "type": "uint256"
        }
      ],
      "name": "ownerOf",
      "outputs": [
        {
          "internalType": "address",
          "name": "",
          "type": "address"
        }
      ],
      "stateMutability": "view",
      "type": "function",
      "constant": true
    },
    {
      "inputs": [
        {
          "internalType": "address",
          "name": "from",
          "type": "address"
        },
        {
          "internalType": "address",
          "name": "to",
          "type": "address"
        },
        {
          "internalType": "uint256",
          "name": "tokenId",
          "type": "uint256"
        }
      ],
      "name": "safeTransferFrom",
      "outputs": [],
      "stateMutability": "nonpayable",
      "type": "function"
    },
    {
      "inputs": [
        {
          "internalType": "address",
          "name": "from",
          "type": "address"
        },
        {
          "internalType": "address",
          "name": "to",
          "type": "address"
        },
        {
          "internalType": "uint256",
          "name": "tokenId",
          "type": "uint256"
        },
        {
          "internalType": "bytes",
          "name": "_data",
          "type": "bytes"
        }
      ],
      "name": "safeTransferFrom",
      "outputs": [],
      "stateMutability": "nonpayable",
      "type": "function"
    },
    {
      "inputs": [
        {
          "internalType": "address",
          "name": "to",
          "type": "address"
        },
        {
          "internalType": "bool",
          "name": "approved",
          "type": "bool"
        }
      ],
      "name": "setApprovalForAll",
      "outputs": [],
      "stateMutability": "nonpayable",
      "type": "function"
    },
    {
      "inputs": [
        {
          "internalType": "bool",
          "name": "isPaused",
          "type": "bool"
        }
      ],
      "name": "setPaused",
      "outputs": [],
      "stateMutability": "nonpayable",
      "type": "function"
    },
    {
      "inputs": [
        {
          "internalType": "bytes4",
          "name": "interfaceId",
          "type": "bytes4"
        }
      ],
      "name": "supportsInterface",
      "outputs": [
        {
          "internalType": "bool",
          "name": "",
          "type": "bool"
        }
      ],
      "stateMutability": "view",
      "type": "function",
      "constant": true
    },
    {
      "inputs": [],
      "name": "symbol",
      "outputs": [
        {
          "internalType": "string",
          "name": "",
          "type": "string"
        }
      ],
      "stateMutability": "view",
      "type": "function",
      "constant": true
    },
    {
      "inputs": [
        {
          "internalType": "uint256",
          "name": "index",
          "type": "uint256"
        }
      ],
      "name": "tokenByIndex",
      "outputs": [
        {
          "internalType": "uint256",
          "name": "",
          "type": "uint256"
        }
      ],
      "stateMutability": "view",
      "type": "function",
      "constant": true
    },
    {
      "inputs": [
        {
          "internalType": "address",
          "name": "owner",
          "type": "address"
        },
        {
          "internalType": "uint256",
          "name": "index",
          "type": "uint256"
        }
      ],
      "name": "tokenOfOwnerByIndex",
      "outputs": [
        {
          "internalType": "uint256",
          "name": "",
          "type": "uint256"
        }
      ],
      "stateMutability": "view",
      "type": "function",
      "constant": true
    },
    {
      "inputs": [
        {
          "internalType": "uint256",
          "name": "tokenId",
          "type": "uint256"
        }
      ],
      "name": "tokenURI",
      "outputs": [
        {
          "internalType": "string",
          "name": "",
          "type": "string"
        }
      ],
      "stateMutability": "view",
      "type": "function",
      "constant": true
    },
    {
      "inputs": [],
      "name": "totalSupply",
      "outputs": [
        {
          "internalType": "uint256",
          "name": "",
          "type": "uint256"
        }
      ],
      "stateMutability": "view",
      "type": "function",
      "constant": true
    },
    {
      "inputs": [
        {
          "internalType": "address",
          "name": "from",
          "type": "address"
        },
        {
          "internalType": "address",
          "name": "to",
          "type": "address"
        },
        {
          "internalType": "uint256",
          "name": "tokenId",
          "type": "uint256"
        }
      ],
      "name": "transferFrom",
      "outputs": [],
      "stateMutability": "nonpayable",
      "type": "function"
    },
    {
      "inputs": [
        {
          "internalType": "address",
          "name": "newOwner",
          "type": "address"
        }
      ],
      "name": "transferOwnership",
      "outputs": [],
      "stateMutability": "nonpayable",
      "type": "function"
    },
    {
      "inputs": [
        {
          "internalType": "address",
          "name": "to",
          "type": "address"
        },
        {
          "internalType": "uint256",
          "name": "tokenId",
          "type": "uint256"
        }
      ],
      "name": "mint",
      "outputs": [],
      "stateMutability": "nonpayable",
      "type": "function"
    }
  ],
  "bytecode": "0x608060405260008060146101000a81548160ff0219169083151502179055506040518060400160405280601281526020017f48437573746f6d455243373231546f6b656e0000000000000000000000000000815250600e90805190602001906200006b929190620004ae565b506040518060400160405280600481526020017f484e465400000000000000000000000000000000000000000000000000000000815250600f9080519060200190620000b9929190620004ae565b506040518060600160405280603f815260200162002c1f603f913960109080519060200190620000eb929190620004ae565b50348015620000f957600080fd5b50600e805462000109906200058d565b80601f016020809104026020016040519081016040528092919081815260200182805462000137906200058d565b8015620001885780601f106200015c5761010080835404028352916020019162000188565b820191906000526020600020905b8154815290600101906020018083116200016a57829003601f168201915b5050505050600f80546200019c906200058d565b80601f0160208091040260200160405190810160405280929190818152602001828054620001ca906200058d565b80156200021b5780601f10620001ef576101008083540402835291602001916200021b565b820191906000526020600020905b815481529060010190602001808311620001fd57829003601f168201915b5050505050601080546200022f906200058d565b80601f01602080910402602001604051908101604052809291908181526020018280546200025d906200058d565b8015620002ae5780601f106200028257610100808354040283529160200191620002ae565b820191906000526020600020905b8154815290600101906020018083116200029057829003601f168201915b5050505050620002c4336200039260201b60201c565b60008060146101000a81548160ff021916908315150217905550620002f66301ffc9a760e01b6200040e60201b60201c565b6200030e6380ac58cd60e01b6200040e60201b60201c565b6200032663780e9d6360e01b6200040e60201b60201c565b82600a90805190602001906200033e929190620004ae565b5081600b908051906020019062000357929190620004ae565b5080600c908051906020019062000370929190620004ae565b5062000389635b5e139f60e01b6200040e60201b60201c565b50505062000625565b806000806101000a81548173ffffffffffffffffffffffffffffffffffffffff021916908373ffffffffffffffffffffffffffffffffffffffff1602179055507f04dba622d284ed0014ee4b9a6a68386be1a4c08a4913ae272de89199cc6861638160405162000403919062000608565b60405180910390a150565b63ffffffff60e01b817bffffffffffffffffffffffffffffffffffffffffffffffffffffffff191614156200044257600080fd5b6001806000837bffffffffffffffffffffffffffffffffffffffffffffffffffffffff19167bffffffffffffffffffffffffffffffffffffffffffffffffffffffff1916815260200190815260200160002060006101000a81548160ff02191690831515021790555050565b828054620004bc906200058d565b90600052602060002090601f016020900481019282620004e057600085556200052c565b82601f10620004fb57805160ff19168380011785556200052c565b828001600101855582156200052c579182015b828111156200052b5782518255916020019190600101906200050e565b5b5090506200053b91906200053f565b5090565b5b808211156200055a57600081600090555060010162000540565b5090565b7f4e487b7100000000000000000000000000000000000000000000000000000000600052602260045260246000fd5b60006002820490506001821680620005a657607f821691505b60208210811415620005bd57620005bc6200055e565b5b50919050565b600073ffffffffffffffffffffffffffffffffffffffff82169050919050565b6000620005f082620005c3565b9050919050565b6200060281620005e3565b82525050565b60006020820190506200061f6000830184620005f7565b92915050565b6125ea80620006356000396000f3fe608060405234801561001057600080fd5b50600436106101375760003560e01c80634f6ccce7116100b8578063b88d4fde1161007c578063b88d4fde1461035e578063c87b56dd1461037a578063ce606ee0146103aa578063d547cfb7146103c8578063e985e9c5146103e6578063f2fde38b1461041657610137565b80634f6ccce7146102945780636352211e146102c457806370a08231146102f457806395d89b4114610324578063a22cb4651461034257610137565b806318160ddd116100ff57806318160ddd146101f257806323b872dd146102105780632f745c591461022c57806340c10f191461025c57806342842e0e1461027857610137565b806301ffc9a71461013c57806306fdde031461016c578063081812fc1461018a578063095ea7b3146101ba57806316c38b3c146101d6575b600080fd5b61015660048036038101906101519190611b9d565b610432565b6040516101639190611be5565b60405180910390f35b61017461049a565b6040516101819190611c99565b60405180910390f35b6101a4600480360381019061019f9190611cf1565b61052c565b6040516101b19190611d5f565b60405180910390f35b6101d460048036038101906101cf9190611da6565b610569565b005b6101f060048036038101906101eb9190611e12565b6106b7565b005b6101fa6107c0565b6040516102079190611e4e565b60405180910390f35b61022a60048036038101906102259190611e69565b6107cd565b005b61024660048036038101906102419190611da6565b6107f0565b6040516102539190611e4e565b60405180910390f35b61027660048036038101906102719190611da6565b61086a565b005b610292600480360381019061028d9190611e69565b6108d9565b005b6102ae60048036038101906102a99190611cf1565b6108f9565b6040516102bb9190611e4e565b60405180910390f35b6102de60048036038101906102d99190611cf1565b610934565b6040516102eb9190611d5f565b60405180910390f35b61030e60048036038101906103099190611ebc565b610971565b60405161031b9190611e4e565b60405180910390f35b61032c6109c1565b6040516103399190611c99565b60405180910390f35b61035c60048036038101906103579190611ee9565b610a53565b005b6103786004803603810190610373919061205e565b610b89565b005b610394600480360381019061038f9190611cf1565b610baf565b6040516103a19190611c99565b60405180910390f35b6103b2610c66565b6040516103bf9190611d5f565b60405180910390f35b6103d0610c8f565b6040516103dd9190611c99565b60405180910390f35b61040060048036038101906103fb91906120e1565b610d21565b60405161040d9190611be5565b60405180910390f35b610430600480360381019061042b9190611ebc565b610db5565b005b600060016000837bffffffffffffffffffffffffffffffffffffffffffffffffffffffff19167bffffffffffffffffffffffffffffffffffffffffffffffffffffffff1916815260200190815260200160002060009054906101000a900460ff169050919050565b6060600a80546104a990612150565b80601f01602080910402602001604051908101604052809291908181526020018280546104d590612150565b80156105225780601f106104f757610100808354040283529160200191610522565b820191906000526020600020905b81548152906001019060200180831161050557829003601f168201915b5050505050905090565b60006003600083815260200190815260200160002060009054906101000a900473ffffffffffffffffffffffffffffffffffffffff169050919050565b600061057482610934565b90508073ffffffffffffffffffffffffffffffffffffffff168373ffffffffffffffffffffffffffffffffffffffff1614156105af57600080fd5b60006105b9610c66565b90508073ffffffffffffffffffffffffffffffffffffffff168473ffffffffffffffffffffffffffffffffffffffff1614806105fb57506105fa8285610d21565b5b61060457600080fd5b836003600085815260200190815260200160002060006101000a81548173ffffffffffffffffffffffffffffffffffffffff021916908373ffffffffffffffffffffffffffffffffffffffff160217905550828473ffffffffffffffffffffffffffffffffffffffff168373ffffffffffffffffffffffffffffffffffffffff167f8c5be1e5ebec7d5bd14f71427d1e84f3dd0314c0f7b2291e5b200ac8c7c3b92560405160405180910390a450505050565b60008054906101000a900473ffffffffffffffffffffffffffffffffffffffff1673ffffffffffffffffffffffffffffffffffffffff163373ffffffffffffffffffffffffffffffffffffffff161461070f57600080fd5b600060149054906101000a900460ff161515811515141561072f576107bd565b80600060146101000a81548160ff021916908315150217905550600060149054906101000a900460ff161561078f577f9e87fac88ff661f02d44f95383c817fece4bce600a3dab7a54406878b965e75260405160405180910390a16107bc565b7fa45f47fdea8a1efdd9029a5691c7f759c32b7c698632b563573e155625d1693360405160405180910390a15b5b50565b6000600880549050905090565b6107d73382610e78565b6107e057600080fd5b6107eb838383610f0d565b505050565b60006107fb83610971565b821061080657600080fd5b600660008473ffffffffffffffffffffffffffffffffffffffff1673ffffffffffffffffffffffffffffffffffffffff168152602001908152602001600020828154811061085757610856612182565b5b9060005260206000200154905092915050565b60008054906101000a900473ffffffffffffffffffffffffffffffffffffffff1673ffffffffffffffffffffffffffffffffffffffff163373ffffffffffffffffffffffffffffffffffffffff16146108c257600080fd5b6108cc8282610f31565b6108d581610f52565b5050565b6108f483838360405180602001604052806000815250610b89565b505050565b60006109036107c0565b821061090e57600080fd5b6008828154811061092257610921612182565b5b90600052602060002001549050919050565b60006002600083815260200190815260200160002060009054906101000a900473ffffffffffffffffffffffffffffffffffffffff169050919050565b60006109ba600460008473ffffffffffffffffffffffffffffffffffffffff1673ffffffffffffffffffffffffffffffffffffffff16815260200190815260200160002061102a565b9050919050565b6060600b80546109d090612150565b80601f01602080910402602001604051908101604052809291908181526020018280546109fc90612150565b8015610a495780601f10610a1e57610100808354040283529160200191610a49565b820191906000526020600020905b815481529060010190602001808311610a2c57829003601f168201915b5050505050905090565b3373ffffffffffffffffffffffffffffffffffffffff168273ffffffffffffffffffffffffffffffffffffffff161415610a8c57600080fd5b80600560003373ffffffffffffffffffffffffffffffffffffffff1673ffffffffffffffffffffffffffffffffffffffff16815260200190815260200160002060008473ffffffffffffffffffffffffffffffffffffffff1673ffffffffffffffffffffffffffffffffffffffff16815260200190815260200160002060006101000a81548160ff0219169083151502179055508173ffffffffffffffffffffffffffffffffffffffff163373ffffffffffffffffffffffffffffffffffffffff167f17307eab39ab6107e8899845ad3d59bd9653f200f220920489ca2b5937696c3183604051610b7d9190611be5565b60405180910390a35050565b610b948484846107cd565b610ba084848484611038565b610ba957600080fd5b50505050565b6060610bba82611140565b610bc357600080fd5b600d60008381526020019081526020016000208054610be190612150565b80601f0160208091040260200160405190810160405280929190818152602001828054610c0d90612150565b8015610c5a5780601f10610c2f57610100808354040283529160200191610c5a565b820191906000526020600020905b815481529060010190602001808311610c3d57829003601f168201915b50505050509050919050565b60008060009054906101000a900473ffffffffffffffffffffffffffffffffffffffff16905090565b6060600c8054610c9e90612150565b80601f0160208091040260200160405190810160405280929190818152602001828054610cca90612150565b8015610d175780601f10610cec57610100808354040283529160200191610d17565b820191906000526020600020905b815481529060010190602001808311610cfa57829003601f168201915b5050505050905090565b6000600560008473ffffffffffffffffffffffffffffffffffffffff1673ffffffffffffffffffffffffffffffffffffffff16815260200190815260200160002060008373ffffffffffffffffffffffffffffffffffffffff1673ffffffffffffffffffffffffffffffffffffffff16815260200190815260200160002060009054906101000a900460ff16905092915050565b60008054906101000a900473ffffffffffffffffffffffffffffffffffffffff1673ffffffffffffffffffffffffffffffffffffffff163373ffffffffffffffffffffffffffffffffffffffff1614610e0d57600080fd5b610e2c8173ffffffffffffffffffffffffffffffffffffffff166111b2565b15610e6c576040517f08c379a0000000000000000000000000000000000000000000000000000000008152600401610e6390612223565b60405180910390fd5b610e75816111c5565b50565b600080610e8483610934565b90508073ffffffffffffffffffffffffffffffffffffffff168473ffffffffffffffffffffffffffffffffffffffff161480610ef357508373ffffffffffffffffffffffffffffffffffffffff16610edb8461052c565b73ffffffffffffffffffffffffffffffffffffffff16145b80610f045750610f038185610d21565b5b91505092915050565b610f1883838361123f565b610f228382611449565b610f2c8282611607565b505050565b610f3b82826116cb565b610f458282611607565b610f4e81611830565b5050565b610f5b81611140565b610f6457600080fd5b611000600c8054610f7490612150565b80601f0160208091040260200160405190810160405280929190818152602001828054610fa090612150565b8015610fed5780601f10610fc257610100808354040283529160200191610fed565b820191906000526020600020905b815481529060010190602001808311610fd057829003601f168201915b5050505050610ffb83611879565b6119da565b600d60008381526020019081526020016000209080519060200190611026929190611a8e565b5050565b600081600001549050919050565b60006110598473ffffffffffffffffffffffffffffffffffffffff166111b2565b6110665760019050611138565b60008473ffffffffffffffffffffffffffffffffffffffff1663150b7a02338887876040518563ffffffff1660e01b81526004016110a79493929190612298565b6020604051808303816000875af11580156110c6573d6000803e3d6000fd5b505050506040513d601f19601f820116820180604052508101906110ea91906122f9565b905063150b7a0260e01b7bffffffffffffffffffffffffffffffffffffffffffffffffffffffff1916817bffffffffffffffffffffffffffffffffffffffffffffffffffffffff1916149150505b949350505050565b6000806002600084815260200190815260200160002060009054906101000a900473ffffffffffffffffffffffffffffffffffffffff169050600073ffffffffffffffffffffffffffffffffffffffff168173ffffffffffffffffffffffffffffffffffffffff161415915050919050565b600080823b905060008111915050919050565b806000806101000a81548173ffffffffffffffffffffffffffffffffffffffff021916908373ffffffffffffffffffffffffffffffffffffffff1602179055507f04dba622d284ed0014ee4b9a6a68386be1a4c08a4913ae272de89199cc686163816040516112349190611d5f565b60405180910390a150565b6002600082815260200190815260200160002060009054906101000a900473ffffffffffffffffffffffffffffffffffffffff1673ffffffffffffffffffffffffffffffffffffffff168373ffffffffffffffffffffffffffffffffffffffff16146112aa57600080fd5b6112c98273ffffffffffffffffffffffffffffffffffffffff166111b2565b156112d357600080fd5b6003600082815260200190815260200160002060006101000a81549073ffffffffffffffffffffffffffffffffffffffff0219169055611350600460008573ffffffffffffffffffffffffffffffffffffffff1673ffffffffffffffffffffffffffffffffffffffff168152602001908152602001600020611a06565b611397600460008473ffffffffffffffffffffffffffffffffffffffff1673ffffffffffffffffffffffffffffffffffffffff168152602001908152602001600020611a62565b816002600083815260200190815260200160002060006101000a81548173ffffffffffffffffffffffffffffffffffffffff021916908373ffffffffffffffffffffffffffffffffffffffff160217905550808273ffffffffffffffffffffffffffffffffffffffff168473ffffffffffffffffffffffffffffffffffffffff167fddf252ad1be2c89b69c2b068fc378daa952ba7f163c4a11628f55a4df523b3ef60405160405180910390a4505050565b60006114a16001600660008673ffffffffffffffffffffffffffffffffffffffff1673ffffffffffffffffffffffffffffffffffffffff16815260200190815260200160002080549050611a7890919063ffffffff16565b905060006007600084815260200190815260200160002054905081811461159c576000600660008673ffffffffffffffffffffffffffffffffffffffff1673ffffffffffffffffffffffffffffffffffffffff168152602001908152602001600020838154811061151557611514612182565b5b9060005260206000200154905080600660008773ffffffffffffffffffffffffffffffffffffffff1673ffffffffffffffffffffffffffffffffffffffff168152602001908152602001600020838154811061157457611573612182565b5b9060005260206000200181905550816007600083815260200190815260200160002081905550505b600660008573ffffffffffffffffffffffffffffffffffffffff1673ffffffffffffffffffffffffffffffffffffffff1681526020019081526020016000208054806115eb576115ea612326565b5b6001900381819060005260206000200160009055905550505050565b600660008373ffffffffffffffffffffffffffffffffffffffff1673ffffffffffffffffffffffffffffffffffffffff168152602001908152602001600020805490506007600083815260200190815260200160002081905550600660008373ffffffffffffffffffffffffffffffffffffffff1673ffffffffffffffffffffffffffffffffffffffff1681526020019081526020016000208190806001815401808255809150506001900390600052602060002001600090919091909150555050565b600073ffffffffffffffffffffffffffffffffffffffff166002600083815260200190815260200160002060009054906101000a900473ffffffffffffffffffffffffffffffffffffffff1673ffffffffffffffffffffffffffffffffffffffff161461173757600080fd5b816002600083815260200190815260200160002060006101000a81548173ffffffffffffffffffffffffffffffffffffffff021916908373ffffffffffffffffffffffffffffffffffffffff1602179055506117d0600460008473ffffffffffffffffffffffffffffffffffffffff1673ffffffffffffffffffffffffffffffffffffffff168152602001908152602001600020611a62565b808273ffffffffffffffffffffffffffffffffffffffff16600073ffffffffffffffffffffffffffffffffffffffff167fddf252ad1be2c89b69c2b068fc378daa952ba7f163c4a11628f55a4df523b3ef60405160405180910390a45050565b6008805490506009600083815260200190815260200160002081905550600881908060018154018082558091505060019003906000526020600020016000909190919091505550565b606060008214156118c1576040518060400160405280600181526020017f300000000000000000000000000000000000000000000000000000000000000081525090506119d5565b600082905060005b600082146118f35780806118dc90612384565b915050600a826118ec91906123fc565b91506118c9565b60008167ffffffffffffffff81111561190f5761190e611f33565b5b6040519080825280601f01601f1916602001820160405280156119415781602001600182028036833780820191505090505b5090505b600085146119ce5760018261195a919061242d565b9150600a856119699190612461565b60306119759190612492565b60f81b81838151811061198b5761198a612182565b5b60200101907effffffffffffffffffffffffffffffffffffffffffffffffffffffffffffff1916908160001a905350600a856119c791906123fc565b9450611945565b8093505050505b919050565b606082826040516020016119ef929190612524565b604051602081830303815290604052905092915050565b60008160000154905060008111611a52576040517f08c379a0000000000000000000000000000000000000000000000000000000008152600401611a4990612594565b60405180910390fd5b6001810382600001819055505050565b6001816000016000828254019250508190555050565b60008183611a86919061242d565b905092915050565b828054611a9a90612150565b90600052602060002090601f016020900481019282611abc5760008555611b03565b82601f10611ad557805160ff1916838001178555611b03565b82800160010185558215611b03579182015b82811115611b02578251825591602001919060010190611ae7565b5b509050611b109190611b14565b5090565b5b80821115611b2d576000816000905550600101611b15565b5090565b6000604051905090565b600080fd5b600080fd5b60007fffffffff0000000000000000000000000000000000000000000000000000000082169050919050565b611b7a81611b45565b8114611b8557600080fd5b50565b600081359050611b9781611b71565b92915050565b600060208284031215611bb357611bb2611b3b565b5b6000611bc184828501611b88565b91505092915050565b60008115159050919050565b611bdf81611bca565b82525050565b6000602082019050611bfa6000830184611bd6565b92915050565b600081519050919050565b600082825260208201905092915050565b60005b83811015611c3a578082015181840152602081019050611c1f565b83811115611c49576000848401525b50505050565b6000601f19601f8301169050919050565b6000611c6b82611c00565b611c758185611c0b565b9350611c85818560208601611c1c565b611c8e81611c4f565b840191505092915050565b60006020820190508181036000830152611cb38184611c60565b905092915050565b6000819050919050565b611cce81611cbb565b8114611cd957600080fd5b50565b600081359050611ceb81611cc5565b92915050565b600060208284031215611d0757611d06611b3b565b5b6000611d1584828501611cdc565b91505092915050565b600073ffffffffffffffffffffffffffffffffffffffff82169050919050565b6000611d4982611d1e565b9050919050565b611d5981611d3e565b82525050565b6000602082019050611d746000830184611d50565b92915050565b611d8381611d3e565b8114611d8e57600080fd5b50565b600081359050611da081611d7a565b92915050565b60008060408385031215611dbd57611dbc611b3b565b5b6000611dcb85828601611d91565b9250506020611ddc85828601611cdc565b9150509250929050565b611def81611bca565b8114611dfa57600080fd5b50565b600081359050611e0c81611de6565b92915050565b600060208284031215611e2857611e27611b3b565b5b6000611e3684828501611dfd565b91505092915050565b611e4881611cbb565b82525050565b6000602082019050611e636000830184611e3f565b92915050565b600080600060608486031215611e8257611e81611b3b565b5b6000611e9086828701611d91565b9350506020611ea186828701611d91565b9250506040611eb286828701611cdc565b9150509250925092565b600060208284031215611ed257611ed1611b3b565b5b6000611ee084828501611d91565b91505092915050565b60008060408385031215611f0057611eff611b3b565b5b6000611f0e85828601611d91565b9250506020611f1f85828601611dfd565b9150509250929050565b600080fd5b600080fd5b7f4e487b7100000000000000000000000000000000000000000000000000000000600052604160045260246000fd5b611f6b82611c4f565b810181811067ffffffffffffffff82111715611f8a57611f89611f33565b5b80604052505050565b6000611f9d611b31565b9050611fa98282611f62565b919050565b600067ffffffffffffffff821115611fc957611fc8611f33565b5b611fd282611c4f565b9050602081019050919050565b82818337600083830152505050565b6000612001611ffc84611fae565b611f93565b90508281526020810184848401111561201d5761201c611f2e565b5b612028848285611fdf565b509392505050565b600082601f83011261204557612044611f29565b5b8135612055848260208601611fee565b91505092915050565b6000806000806080858703121561207857612077611b3b565b5b600061208687828801611d91565b945050602061209787828801611d91565b93505060406120a887828801611cdc565b925050606085013567ffffffffffffffff8111156120c9576120c8611b40565b5b6120d587828801612030565b91505092959194509250565b600080604083850312156120f8576120f7611b3b565b5b600061210685828601611d91565b925050602061211785828601611d91565b9150509250929050565b7f4e487b7100000000000000000000000000000000000000000000000000000000600052602260045260246000fd5b6000600282049050600182168061216857607f821691505b6020821081141561217c5761217b612121565b5b50919050565b7f4e487b7100000000000000000000000000000000000000000000000000000000600052603260045260246000fd5b7f4f776e6572736869702063616e206e6f74206265207472616e7366657272656460008201527f20746f206120636f6e7472616374206164647265737300000000000000000000602082015250565b600061220d603683611c0b565b9150612218826121b1565b604082019050919050565b6000602082019050818103600083015261223c81612200565b9050919050565b600081519050919050565b600082825260208201905092915050565b600061226a82612243565b612274818561224e565b9350612284818560208601611c1c565b61228d81611c4f565b840191505092915050565b60006080820190506122ad6000830187611d50565b6122ba6020830186611d50565b6122c76040830185611e3f565b81810360608301526122d9818461225f565b905095945050505050565b6000815190506122f381611b71565b92915050565b60006020828403121561230f5761230e611b3b565b5b600061231d848285016122e4565b91505092915050565b7f4e487b7100000000000000000000000000000000000000000000000000000000600052603160045260246000fd5b7f4e487b7100000000000000000000000000000000000000000000000000000000600052601160045260246000fd5b600061238f82611cbb565b91507fffffffffffffffffffffffffffffffffffffffffffffffffffffffffffffffff8214156123c2576123c1612355565b5b600182019050919050565b7f4e487b7100000000000000000000000000000000000000000000000000000000600052601260045260246000fd5b600061240782611cbb565b915061241283611cbb565b925082612422576124216123cd565b5b828204905092915050565b600061243882611cbb565b915061244383611cbb565b92508282101561245657612455612355565b5b828203905092915050565b600061246c82611cbb565b915061247783611cbb565b925082612487576124866123cd565b5b828206905092915050565b600061249d82611cbb565b91506124a883611cbb565b9250827fffffffffffffffffffffffffffffffffffffffffffffffffffffffffffffffff038211156124dd576124dc612355565b5b828201905092915050565b600081905092915050565b60006124fe82611c00565b61250881856124e8565b9350612518818560208601611c1c565b80840191505092915050565b600061253082856124f3565b915061253c82846124f3565b91508190509392505050565b7f436f756e7465723a2064656372656d656e74206f766572666c6f770000000000600082015250565b600061257e601b83611c0b565b915061258982612548565b602082019050919050565b600060208201905081810360008301526125ad81612571565b905091905056fea26469706673582212207e4f5411738b9672c10c1e114b383d8e2aa7d8a44647b1db194699b4773232a264736f6c634300080b003368747470733a2f2f73332d75732d776573742d322e616d617a6f6e6177732e636f6d2f756461636974792d626c6f636b636861696e2f63617073746f6e652f",
  "immutableReferences": {},
  "source": "// SPDX-License-Identifier: MIT\npragma solidity ^0.8.0;\n\nimport \"./ERC721Mintable/ERC721Metadata.sol\";\n\n//  TODO's: Create CustomERC721Token contract that inherits from the ERC721Metadata contract. You can name this contract as you please\n//  1) Pass in appropriate values for the inherited ERC721Metadata contract\n//      - make the base token uri: https://s3-us-west-2.amazonaws.com/udacity-blockchain/capstone/\n//  2) create a public mint() that does the following:\n//      -can only be executed by the contract owner\n//      -takes in a 'to' address, tokenId, and tokenURI as parameters\n//      -returns a true boolean upon completion of the function\n//      -calls the superclass mint and setTokenURI functions\n\ncontract ERC721MintableComplete is ERC721Metadata {\n    string private _name = \"HCustomERC721Token\";\n    string private _symbol = \"HNFT\";\n    string private _baseTokenURI =\n        \"https://s3-us-west-2.amazonaws.com/udacity-blockchain/capstone/\";\n\n    constructor() ERC721Metadata(_name, _symbol, _baseTokenURI) {}\n\n    function mint(address to, uint256 tokenId) public onlyOwner {\n        _mint(to, tokenId);\n        _setTokenURI(tokenId);\n    }\n}\n",
  "sourcePath": "/Users/hossam.magdy/src/github.com/hossam-magdy/web3/Project.Capstone/contracts/ERC721MintableComplete.sol",
  "compiler": {
    "name": "solc",
    "version": "0.8.11+commit.d7f03943.Emscripten.clang"
  },
  "schemaVersion": "3.4.4",
  "updatedAt": "2022-01-01T13:32:41.611Z",
  "networkType": "ethereum",
  "devdoc": {
    "kind": "dev",
    "methods": {
      "isApprovedForAll(address,address)": {
        "details": "Tells whether an operator is approved by a given owner",
        "params": {
          "operator": "operator address which you want to query the approval of",
          "owner": "owner address which you want to query the approval of"
        },
        "returns": {
          "_0": "bool whether the given operator is approved by the given owner"
        }
      },
      "setApprovalForAll(address,bool)": {
        "details": "Sets or unsets the approval of a given operator An operator is allowed to transfer all tokens of the sender on their behalf",
        "params": {
          "approved": "representing the status of the approval to be set",
          "to": "operator address to set the approval"
        }
      },
      "supportsInterface(bytes4)": {
        "details": "implement supportsInterface(bytes4) using a lookup table"
      },
      "tokenByIndex(uint256)": {
        "details": "Gets the token ID at a given index of all the tokens in this contract Reverts if the index is greater or equal to the total number of tokens",
        "params": {
          "index": "uint256 representing the index to be accessed of the tokens list"
        },
        "returns": {
          "_0": "uint256 token ID at the given index of the tokens list"
        }
      },
      "tokenOfOwnerByIndex(address,uint256)": {
        "details": "Gets the token ID at a given index of the tokens list of the requested owner",
        "params": {
          "index": "uint256 representing the index to be accessed of the requested tokens list",
          "owner": "address owning the tokens list to be accessed"
        },
        "returns": {
          "_0": "uint256 token ID at the given index of the tokens list owned by the requested address"
        }
      },
      "totalSupply()": {
        "details": "Gets the total amount of tokens stored by the contract",
        "returns": {
          "_0": "uint256 representing the total amount of tokens"
        }
      }
    },
    "version": 1
  },
  "userdoc": {
    "kind": "user",
    "methods": {},
    "version": 1
  }
}