{
  "contractName": "ERC721",
  "abi": [
    {
      "inputs": [],
      "stateMutability": "nonpayable",
      "type": "constructor"
    },
    {
      "anonymous": false,
      "inputs": [
        {
          "indexed": true,
          "internalType": "address",
          "name": "owner",
          "type": "address"
        },
        {
          "indexed": true,
          "internalType": "address",
          "name": "approved",
          "type": "address"
        },
        {
          "indexed": true,
          "internalType": "uint256",
          "name": "tokenId",
          "type": "uint256"
        }
      ],
      "name": "Approval",
      "type": "event"
    },
    {
      "anonymous": false,
      "inputs": [
        {
          "indexed": true,
          "internalType": "address",
          "name": "owner",
          "type": "address"
        },
        {
          "indexed": true,
          "internalType": "address",
          "name": "operator",
          "type": "address"
        },
        {
          "indexed": false,
          "internalType": "bool",
          "name": "approved",
          "type": "bool"
        }
      ],
      "name": "ApprovalForAll",
      "type": "event"
    },
    {
      "anonymous": false,
      "inputs": [
        {
          "indexed": false,
          "internalType": "address",
          "name": "newOwner",
          "type": "address"
        }
      ],
      "name": "OwnershipTransferred",
      "type": "event"
    },
    {
      "anonymous": false,
      "inputs": [],
      "name": "Paused",
      "type": "event"
    },
    {
      "anonymous": false,
      "inputs": [
        {
          "indexed": true,
          "internalType": "address",
          "name": "from",
          "type": "address"
        },
        {
          "indexed": true,
          "internalType": "address",
          "name": "to",
          "type": "address"
        },
        {
          "indexed": true,
          "internalType": "uint256",
          "name": "tokenId",
          "type": "uint256"
        }
      ],
      "name": "Transfer",
      "type": "event"
    },
    {
      "anonymous": false,
      "inputs": [],
      "name": "Unpaused",
      "type": "event"
    },
    {
      "inputs": [],
      "name": "contractOwner",
      "outputs": [
        {
          "internalType": "address",
          "name": "",
          "type": "address"
        }
      ],
      "stateMutability": "view",
      "type": "function"
    },
    {
      "inputs": [
        {
          "internalType": "bool",
          "name": "isPaused",
          "type": "bool"
        }
      ],
      "name": "setPaused",
      "outputs": [],
      "stateMutability": "nonpayable",
      "type": "function"
    },
    {
      "inputs": [
        {
          "internalType": "bytes4",
          "name": "interfaceId",
          "type": "bytes4"
        }
      ],
      "name": "supportsInterface",
      "outputs": [
        {
          "internalType": "bool",
          "name": "",
          "type": "bool"
        }
      ],
      "stateMutability": "view",
      "type": "function"
    },
    {
      "inputs": [
        {
          "internalType": "address",
          "name": "newOwner",
          "type": "address"
        }
      ],
      "name": "transferOwnership",
      "outputs": [],
      "stateMutability": "nonpayable",
      "type": "function"
    },
    {
      "inputs": [
        {
          "internalType": "address",
          "name": "owner",
          "type": "address"
        }
      ],
      "name": "balanceOf",
      "outputs": [
        {
          "internalType": "uint256",
          "name": "",
          "type": "uint256"
        }
      ],
      "stateMutability": "view",
      "type": "function"
    },
    {
      "inputs": [
        {
          "internalType": "uint256",
          "name": "tokenId",
          "type": "uint256"
        }
      ],
      "name": "ownerOf",
      "outputs": [
        {
          "internalType": "address",
          "name": "",
          "type": "address"
        }
      ],
      "stateMutability": "view",
      "type": "function"
    },
    {
      "inputs": [
        {
          "internalType": "address",
          "name": "to",
          "type": "address"
        },
        {
          "internalType": "uint256",
          "name": "tokenId",
          "type": "uint256"
        }
      ],
      "name": "approve",
      "outputs": [],
      "stateMutability": "nonpayable",
      "type": "function"
    },
    {
      "inputs": [
        {
          "internalType": "uint256",
          "name": "tokenId",
          "type": "uint256"
        }
      ],
      "name": "getApproved",
      "outputs": [
        {
          "internalType": "address",
          "name": "",
          "type": "address"
        }
      ],
      "stateMutability": "view",
      "type": "function"
    },
    {
      "inputs": [
        {
          "internalType": "address",
          "name": "to",
          "type": "address"
        },
        {
          "internalType": "bool",
          "name": "approved",
          "type": "bool"
        }
      ],
      "name": "setApprovalForAll",
      "outputs": [],
      "stateMutability": "nonpayable",
      "type": "function"
    },
    {
      "inputs": [
        {
          "internalType": "address",
          "name": "owner",
          "type": "address"
        },
        {
          "internalType": "address",
          "name": "operator",
          "type": "address"
        }
      ],
      "name": "isApprovedForAll",
      "outputs": [
        {
          "internalType": "bool",
          "name": "",
          "type": "bool"
        }
      ],
      "stateMutability": "view",
      "type": "function"
    },
    {
      "inputs": [
        {
          "internalType": "address",
          "name": "from",
          "type": "address"
        },
        {
          "internalType": "address",
          "name": "to",
          "type": "address"
        },
        {
          "internalType": "uint256",
          "name": "tokenId",
          "type": "uint256"
        }
      ],
      "name": "transferFrom",
      "outputs": [],
      "stateMutability": "nonpayable",
      "type": "function"
    },
    {
      "inputs": [
        {
          "internalType": "address",
          "name": "from",
          "type": "address"
        },
        {
          "internalType": "address",
          "name": "to",
          "type": "address"
        },
        {
          "internalType": "uint256",
          "name": "tokenId",
          "type": "uint256"
        }
      ],
      "name": "safeTransferFrom",
      "outputs": [],
      "stateMutability": "nonpayable",
      "type": "function"
    },
    {
      "inputs": [
        {
          "internalType": "address",
          "name": "from",
          "type": "address"
        },
        {
          "internalType": "address",
          "name": "to",
          "type": "address"
        },
        {
          "internalType": "uint256",
          "name": "tokenId",
          "type": "uint256"
        },
        {
          "internalType": "bytes",
          "name": "_data",
          "type": "bytes"
        }
      ],
      "name": "safeTransferFrom",
      "outputs": [],
      "stateMutability": "nonpayable",
      "type": "function"
    }
  ],
  "bytecode": "0x608060405260008060146101000a81548160ff0219169083151502179055503480156200002b57600080fd5b506200003d336200008d60201b60201c565b60008060146101000a81548160ff0219169083151502179055506200006f6301ffc9a760e01b6200010960201b60201c565b620000876380ac58cd60e01b6200010960201b60201c565b6200020b565b806000806101000a81548173ffffffffffffffffffffffffffffffffffffffff021916908373ffffffffffffffffffffffffffffffffffffffff1602179055507f04dba622d284ed0014ee4b9a6a68386be1a4c08a4913ae272de89199cc68616381604051620000fe9190620001ee565b60405180910390a150565b63ffffffff60e01b817bffffffffffffffffffffffffffffffffffffffffffffffffffffffff191614156200013d57600080fd5b6001806000837bffffffffffffffffffffffffffffffffffffffffffffffffffffffff19167bffffffffffffffffffffffffffffffffffffffffffffffffffffffff1916815260200190815260200160002060006101000a81548160ff02191690831515021790555050565b600073ffffffffffffffffffffffffffffffffffffffff82169050919050565b6000620001d682620001a9565b9050919050565b620001e881620001c9565b82525050565b6000602082019050620002056000830184620001dd565b92915050565b6115a3806200021b6000396000f3fe608060405234801561001057600080fd5b50600436106100cf5760003560e01c80636352211e1161008c578063b88d4fde11610066578063b88d4fde14610220578063ce606ee01461023c578063e985e9c51461025a578063f2fde38b1461028a576100cf565b80636352211e146101a457806370a08231146101d4578063a22cb46514610204576100cf565b806301ffc9a7146100d4578063081812fc14610104578063095ea7b31461013457806316c38b3c1461015057806323b872dd1461016c57806342842e0e14610188575b600080fd5b6100ee60048036038101906100e99190610e6e565b6102a6565b6040516100fb9190610eb6565b60405180910390f35b61011e60048036038101906101199190610f07565b61030e565b60405161012b9190610f75565b60405180910390f35b61014e60048036038101906101499190610fbc565b61034b565b005b61016a60048036038101906101659190611028565b610499565b005b61018660048036038101906101819190611055565b6105a2565b005b6101a2600480360381019061019d9190611055565b6105c5565b005b6101be60048036038101906101b99190610f07565b6105e5565b6040516101cb9190610f75565b60405180910390f35b6101ee60048036038101906101e991906110a8565b610622565b6040516101fb91906110e4565b60405180910390f35b61021e600480360381019061021991906110ff565b610672565b005b61023a60048036038101906102359190611285565b6107a8565b005b6102446107ce565b6040516102519190610f75565b60405180910390f35b610274600480360381019061026f9190611308565b6107f7565b6040516102819190610eb6565b60405180910390f35b6102a4600480360381019061029f91906110a8565b61088b565b005b600060016000837bffffffffffffffffffffffffffffffffffffffffffffffffffffffff19167bffffffffffffffffffffffffffffffffffffffffffffffffffffffff1916815260200190815260200160002060009054906101000a900460ff169050919050565b60006003600083815260200190815260200160002060009054906101000a900473ffffffffffffffffffffffffffffffffffffffff169050919050565b6000610356826105e5565b90508073ffffffffffffffffffffffffffffffffffffffff168373ffffffffffffffffffffffffffffffffffffffff16141561039157600080fd5b600061039b6107ce565b90508073ffffffffffffffffffffffffffffffffffffffff168473ffffffffffffffffffffffffffffffffffffffff1614806103dd57506103dc82856107f7565b5b6103e657600080fd5b836003600085815260200190815260200160002060006101000a81548173ffffffffffffffffffffffffffffffffffffffff021916908373ffffffffffffffffffffffffffffffffffffffff160217905550828473ffffffffffffffffffffffffffffffffffffffff168373ffffffffffffffffffffffffffffffffffffffff167f8c5be1e5ebec7d5bd14f71427d1e84f3dd0314c0f7b2291e5b200ac8c7c3b92560405160405180910390a450505050565b60008054906101000a900473ffffffffffffffffffffffffffffffffffffffff1673ffffffffffffffffffffffffffffffffffffffff163373ffffffffffffffffffffffffffffffffffffffff16146104f157600080fd5b600060149054906101000a900460ff16151581151514156105115761059f565b80600060146101000a81548160ff021916908315150217905550600060149054906101000a900460ff1615610571577f9e87fac88ff661f02d44f95383c817fece4bce600a3dab7a54406878b965e75260405160405180910390a161059e565b7fa45f47fdea8a1efdd9029a5691c7f759c32b7c698632b563573e155625d1693360405160405180910390a15b5b50565b6105ac338261094e565b6105b557600080fd5b6105c08383836109e3565b505050565b6105e0838383604051806020016040528060008152506107a8565b505050565b60006002600083815260200190815260200160002060009054906101000a900473ffffffffffffffffffffffffffffffffffffffff169050919050565b600061066b600460008473ffffffffffffffffffffffffffffffffffffffff1673ffffffffffffffffffffffffffffffffffffffff168152602001908152602001600020610bed565b9050919050565b3373ffffffffffffffffffffffffffffffffffffffff168273ffffffffffffffffffffffffffffffffffffffff1614156106ab57600080fd5b80600560003373ffffffffffffffffffffffffffffffffffffffff1673ffffffffffffffffffffffffffffffffffffffff16815260200190815260200160002060008473ffffffffffffffffffffffffffffffffffffffff1673ffffffffffffffffffffffffffffffffffffffff16815260200190815260200160002060006101000a81548160ff0219169083151502179055508173ffffffffffffffffffffffffffffffffffffffff163373ffffffffffffffffffffffffffffffffffffffff167f17307eab39ab6107e8899845ad3d59bd9653f200f220920489ca2b5937696c318360405161079c9190610eb6565b60405180910390a35050565b6107b38484846105a2565b6107bf84848484610bfb565b6107c857600080fd5b50505050565b60008060009054906101000a900473ffffffffffffffffffffffffffffffffffffffff16905090565b6000600560008473ffffffffffffffffffffffffffffffffffffffff1673ffffffffffffffffffffffffffffffffffffffff16815260200190815260200160002060008373ffffffffffffffffffffffffffffffffffffffff1673ffffffffffffffffffffffffffffffffffffffff16815260200190815260200160002060009054906101000a900460ff16905092915050565b60008054906101000a900473ffffffffffffffffffffffffffffffffffffffff1673ffffffffffffffffffffffffffffffffffffffff163373ffffffffffffffffffffffffffffffffffffffff16146108e357600080fd5b6109028173ffffffffffffffffffffffffffffffffffffffff16610d03565b15610942576040517f08c379a0000000000000000000000000000000000000000000000000000000008152600401610939906113cb565b60405180910390fd5b61094b81610d16565b50565b60008061095a836105e5565b90508073ffffffffffffffffffffffffffffffffffffffff168473ffffffffffffffffffffffffffffffffffffffff1614806109c957508373ffffffffffffffffffffffffffffffffffffffff166109b18461030e565b73ffffffffffffffffffffffffffffffffffffffff16145b806109da57506109d981856107f7565b5b91505092915050565b6002600082815260200190815260200160002060009054906101000a900473ffffffffffffffffffffffffffffffffffffffff1673ffffffffffffffffffffffffffffffffffffffff168373ffffffffffffffffffffffffffffffffffffffff1614610a4e57600080fd5b610a6d8273ffffffffffffffffffffffffffffffffffffffff16610d03565b15610a7757600080fd5b6003600082815260200190815260200160002060006101000a81549073ffffffffffffffffffffffffffffffffffffffff0219169055610af4600460008573ffffffffffffffffffffffffffffffffffffffff1673ffffffffffffffffffffffffffffffffffffffff168152602001908152602001600020610d90565b610b3b600460008473ffffffffffffffffffffffffffffffffffffffff1673ffffffffffffffffffffffffffffffffffffffff168152602001908152602001600020610dec565b816002600083815260200190815260200160002060006101000a81548173ffffffffffffffffffffffffffffffffffffffff021916908373ffffffffffffffffffffffffffffffffffffffff160217905550808273ffffffffffffffffffffffffffffffffffffffff168473ffffffffffffffffffffffffffffffffffffffff167fddf252ad1be2c89b69c2b068fc378daa952ba7f163c4a11628f55a4df523b3ef60405160405180910390a4505050565b600081600001549050919050565b6000610c1c8473ffffffffffffffffffffffffffffffffffffffff16610d03565b610c295760019050610cfb565b60008473ffffffffffffffffffffffffffffffffffffffff1663150b7a02338887876040518563ffffffff1660e01b8152600401610c6a9493929190611473565b6020604051808303816000875af1158015610c89573d6000803e3d6000fd5b505050506040513d601f19601f82011682018060405250810190610cad91906114d4565b905063150b7a0260e01b7bffffffffffffffffffffffffffffffffffffffffffffffffffffffff1916817bffffffffffffffffffffffffffffffffffffffffffffffffffffffff1916149150505b949350505050565b600080823b905060008111915050919050565b806000806101000a81548173ffffffffffffffffffffffffffffffffffffffff021916908373ffffffffffffffffffffffffffffffffffffffff1602179055507f04dba622d284ed0014ee4b9a6a68386be1a4c08a4913ae272de89199cc68616381604051610d859190610f75565b60405180910390a150565b60008160000154905060008111610ddc576040517f08c379a0000000000000000000000000000000000000000000000000000000008152600401610dd39061154d565b60405180910390fd5b6001810382600001819055505050565b6001816000016000828254019250508190555050565b6000604051905090565b600080fd5b600080fd5b60007fffffffff0000000000000000000000000000000000000000000000000000000082169050919050565b610e4b81610e16565b8114610e5657600080fd5b50565b600081359050610e6881610e42565b92915050565b600060208284031215610e8457610e83610e0c565b5b6000610e9284828501610e59565b91505092915050565b60008115159050919050565b610eb081610e9b565b82525050565b6000602082019050610ecb6000830184610ea7565b92915050565b6000819050919050565b610ee481610ed1565b8114610eef57600080fd5b50565b600081359050610f0181610edb565b92915050565b600060208284031215610f1d57610f1c610e0c565b5b6000610f2b84828501610ef2565b91505092915050565b600073ffffffffffffffffffffffffffffffffffffffff82169050919050565b6000610f5f82610f34565b9050919050565b610f6f81610f54565b82525050565b6000602082019050610f8a6000830184610f66565b92915050565b610f9981610f54565b8114610fa457600080fd5b50565b600081359050610fb681610f90565b92915050565b60008060408385031215610fd357610fd2610e0c565b5b6000610fe185828601610fa7565b9250506020610ff285828601610ef2565b9150509250929050565b61100581610e9b565b811461101057600080fd5b50565b60008135905061102281610ffc565b92915050565b60006020828403121561103e5761103d610e0c565b5b600061104c84828501611013565b91505092915050565b60008060006060848603121561106e5761106d610e0c565b5b600061107c86828701610fa7565b935050602061108d86828701610fa7565b925050604061109e86828701610ef2565b9150509250925092565b6000602082840312156110be576110bd610e0c565b5b60006110cc84828501610fa7565b91505092915050565b6110de81610ed1565b82525050565b60006020820190506110f960008301846110d5565b92915050565b6000806040838503121561111657611115610e0c565b5b600061112485828601610fa7565b925050602061113585828601611013565b9150509250929050565b600080fd5b600080fd5b6000601f19601f8301169050919050565b7f4e487b7100000000000000000000000000000000000000000000000000000000600052604160045260246000fd5b61119282611149565b810181811067ffffffffffffffff821117156111b1576111b061115a565b5b80604052505050565b60006111c4610e02565b90506111d08282611189565b919050565b600067ffffffffffffffff8211156111f0576111ef61115a565b5b6111f982611149565b9050602081019050919050565b82818337600083830152505050565b6000611228611223846111d5565b6111ba565b90508281526020810184848401111561124457611243611144565b5b61124f848285611206565b509392505050565b600082601f83011261126c5761126b61113f565b5b813561127c848260208601611215565b91505092915050565b6000806000806080858703121561129f5761129e610e0c565b5b60006112ad87828801610fa7565b94505060206112be87828801610fa7565b93505060406112cf87828801610ef2565b925050606085013567ffffffffffffffff8111156112f0576112ef610e11565b5b6112fc87828801611257565b91505092959194509250565b6000806040838503121561131f5761131e610e0c565b5b600061132d85828601610fa7565b925050602061133e85828601610fa7565b9150509250929050565b600082825260208201905092915050565b7f4f776e6572736869702063616e206e6f74206265207472616e7366657272656460008201527f20746f206120636f6e7472616374206164647265737300000000000000000000602082015250565b60006113b5603683611348565b91506113c082611359565b604082019050919050565b600060208201905081810360008301526113e4816113a8565b9050919050565b600081519050919050565b600082825260208201905092915050565b60005b8381101561142557808201518184015260208101905061140a565b83811115611434576000848401525b50505050565b6000611445826113eb565b61144f81856113f6565b935061145f818560208601611407565b61146881611149565b840191505092915050565b60006080820190506114886000830187610f66565b6114956020830186610f66565b6114a260408301856110d5565b81810360608301526114b4818461143a565b905095945050505050565b6000815190506114ce81610e42565b92915050565b6000602082840312156114ea576114e9610e0c565b5b60006114f8848285016114bf565b91505092915050565b7f436f756e7465723a2064656372656d656e74206f766572666c6f770000000000600082015250565b6000611537601b83611348565b915061154282611501565b602082019050919050565b600060208201905081810360008301526115668161152a565b905091905056fea2646970667358221220c9a1938ba45703937aed4f04fb9e89a93dde5c4ebf016f6193ea550fe80920fe64736f6c634300080b0033",
  "immutableReferences": {},
  "source": "// SPDX-License-Identifier: MIT\npragma solidity ^0.8.0;\n\nimport \"./ERC165.sol\";\nimport \"./IERC721Receiver.sol\";\nimport \"../utils/Ownable.sol\";\nimport \"../utils/Pausable.sol\";\nimport \"../utils/openzeppelin/SafeMath.sol\";\nimport \"../utils/openzeppelin/Counters.sol\";\n\n// https://eips.ethereum.org/EIPS/eip-721\ncontract ERC721 is Ownable, Pausable, ERC165 {\n    event Transfer(\n        address indexed from,\n        address indexed to,\n        uint256 indexed tokenId\n    );\n\n    event Approval(\n        address indexed owner,\n        address indexed approved,\n        uint256 indexed tokenId\n    );\n\n    event ApprovalForAll(\n        address indexed owner,\n        address indexed operator,\n        bool approved\n    );\n\n    using SafeMath for uint256;\n    using Address for address;\n    using Counters for Counters.Counter;\n\n    // Equals to `bytes4(keccak256(\"onERC721Received(address,address,uint256,bytes)\"))`\n    // which can be also obtained as `IERC721Receiver(0).onERC721Received.selector`\n    bytes4 private constant _ERC721_RECEIVED = 0x150b7a02;\n\n    // Mapping from token ID to owner\n    mapping(uint256 => address) private _tokenOwner;\n\n    // Mapping from token ID to approved address\n    mapping(uint256 => address) private _tokenApprovals;\n\n    // Mapping from owner to number of owned token\n    // IMPORTANT: this mapping uses Counters lib which is used to protect overflow when incrementing/decrementing a uint\n    // use the following functions when interacting with Counters: increment(), decrement(), and current() to get the value\n    // see: https://github.com/utils/OpenZeppelin/openzeppelin-solidity/blob/master/contracts/drafts/Counters.sol\n    mapping(address => Counters.Counter) private _ownedTokensCount;\n\n    // Mapping from owner to operator approvals\n    mapping(address => mapping(address => bool)) private _operatorApprovals;\n\n    bytes4 private constant _INTERFACE_ID_ERC721 = 0x80ac58cd;\n\n    constructor() {\n        // register the supported interfaces to conform to ERC721 via ERC165\n        _registerInterface(_INTERFACE_ID_ERC721);\n    }\n\n    function balanceOf(address owner) public view returns (uint256) {\n        // TODO return the token balance of given address\n        // TIP: remember the functions to use for Counters. you can refresh yourself with the link above\n        return _ownedTokensCount[owner].current();\n    }\n\n    function ownerOf(uint256 tokenId) public view returns (address) {\n        // TODO return the owner of the given tokenId\n        return _tokenOwner[tokenId];\n    }\n\n    //    @dev Approves another address to transfer the given token ID\n    function approve(address to, uint256 tokenId) public {\n        // TODO require the given address to not be the owner of the tokenId\n        // TODO require the msg sender to be the owner of the contract or isApprovedForAll() to be true\n        // TODO add 'to' address to token approvals\n        // TODO emit Approval Event\n        address tokenOwner = ownerOf(tokenId);\n        require(to != tokenOwner);\n        address contractOwner = contractOwner();\n        require(to == contractOwner || isApprovedForAll(tokenOwner, to));\n\n        _tokenApprovals[tokenId] = to;\n\n        emit Approval(tokenOwner, to, tokenId);\n    }\n\n    function getApproved(uint256 tokenId) public view returns (address) {\n        // TODO return token approval if it exists\n        return _tokenApprovals[tokenId];\n    }\n\n    /**\n     * @dev Sets or unsets the approval of a given operator\n     * An operator is allowed to transfer all tokens of the sender on their behalf\n     * @param to operator address to set the approval\n     * @param approved representing the status of the approval to be set\n     */\n    function setApprovalForAll(address to, bool approved) public {\n        require(to != msg.sender);\n        _operatorApprovals[msg.sender][to] = approved;\n        emit ApprovalForAll(msg.sender, to, approved);\n    }\n\n    /**\n     * @dev Tells whether an operator is approved by a given owner\n     * @param owner owner address which you want to query the approval of\n     * @param operator operator address which you want to query the approval of\n     * @return bool whether the given operator is approved by the given owner\n     */\n    function isApprovedForAll(address owner, address operator)\n        public\n        view\n        returns (bool)\n    {\n        return _operatorApprovals[owner][operator];\n    }\n\n    function transferFrom(\n        address from,\n        address to,\n        uint256 tokenId\n    ) public {\n        require(_isApprovedOrOwner(msg.sender, tokenId));\n\n        _transferFrom(from, to, tokenId);\n    }\n\n    function safeTransferFrom(\n        address from,\n        address to,\n        uint256 tokenId\n    ) public {\n        safeTransferFrom(from, to, tokenId, \"\");\n    }\n\n    function safeTransferFrom(\n        address from,\n        address to,\n        uint256 tokenId,\n        bytes memory _data\n    ) public {\n        transferFrom(from, to, tokenId);\n        require(_checkOnERC721Received(from, to, tokenId, _data));\n    }\n\n    /**\n     * @dev Returns whether the specified token exists\n     * @param tokenId uint256 ID of the token to query the existence of\n     * @return bool whether the token exists\n     */\n    function _exists(uint256 tokenId) internal view returns (bool) {\n        address owner = _tokenOwner[tokenId];\n        return owner != address(0);\n    }\n\n    /**\n     * @dev Returns whether the given spender can transfer a given token ID\n     * @param spender address of the spender to query\n     * @param tokenId uint256 ID of the token to be transferred\n     * @return bool whether the msg.sender is approved for the given token ID,\n     * is an operator of the owner, or is the owner of the token\n     */\n    function _isApprovedOrOwner(address spender, uint256 tokenId)\n        internal\n        view\n        returns (bool)\n    {\n        address owner = ownerOf(tokenId);\n        return (spender == owner ||\n            getApproved(tokenId) == spender ||\n            isApprovedForAll(owner, spender));\n    }\n\n    // @dev Internal function to mint a new token\n    // TIP: remember the functions to use for Counters. you can refresh yourself with the link above\n    function _mint(address to, uint256 tokenId) internal virtual {\n        // TODO revert if given tokenId already exists or given address is invalid\n        // TODO mint tokenId to given address & increase token count of owner\n        // TODO emit Transfer event\n\n        require(_tokenOwner[tokenId] == address(0));\n        _tokenOwner[tokenId] = to;\n        _ownedTokensCount[to].increment();\n        emit Transfer(address(0), to, tokenId);\n    }\n\n    // @dev Internal function to transfer ownership of a given token ID to another address.\n    // TIP: remember the functions to use for Counters. you can refresh yourself with the link above\n    function _transferFrom(\n        address from,\n        address to,\n        uint256 tokenId\n    ) internal virtual {\n        // TODO: require from address is the owner of the given token\n        // TODO: require token is being transfered to valid address\n        // TODO: clear approval\n        // TODO: update token counts & transfer ownership of the token ID\n        // TODO: emit correct event\n\n        require(from == _tokenOwner[tokenId]);\n        require(!to.isContract());\n\n        delete _tokenApprovals[tokenId];\n        _ownedTokensCount[from].decrement();\n        _ownedTokensCount[to].increment();\n\n        _tokenOwner[tokenId] = to;\n\n        emit Transfer(from, to, tokenId);\n    }\n\n    /**\n     * @dev Internal function to invoke `onERC721Received` on a target address\n     * The call is not executed if the target address is not a contract\n     * @param from address representing the previous owner of the given token ID\n     * @param to target address that will receive the tokens\n     * @param tokenId uint256 ID of the token to be transferred\n     * @param _data bytes optional data to send along with the call\n     * @return bool whether the call correctly returned the expected magic value\n     */\n    function _checkOnERC721Received(\n        address from,\n        address to,\n        uint256 tokenId,\n        bytes memory _data\n    ) internal returns (bool) {\n        if (!to.isContract()) {\n            return true;\n        }\n\n        bytes4 retval = IERC721Receiver(to).onERC721Received(\n            msg.sender,\n            from,\n            tokenId,\n            _data\n        );\n        return (retval == _ERC721_RECEIVED);\n    }\n\n    // @dev Private function to clear current approval of a given token ID\n    function _clearApproval(uint256 tokenId) private {\n        if (_tokenApprovals[tokenId] != address(0)) {\n            _tokenApprovals[tokenId] = address(0);\n        }\n    }\n}\n",
  "sourcePath": "/Users/hossam.magdy/src/github.com/hossam-magdy/web3/Project.Capstone/contracts/ERC721Mintable/ERC721.sol",
  "compiler": {
    "name": "solc",
    "version": "0.8.11+commit.d7f03943.Emscripten.clang"
  },
  "schemaVersion": "3.4.4",
  "updatedAt": "2022-01-01T12:51:35.246Z",
  "devdoc": {
    "kind": "dev",
    "methods": {
      "isApprovedForAll(address,address)": {
        "details": "Tells whether an operator is approved by a given owner",
        "params": {
          "operator": "operator address which you want to query the approval of",
          "owner": "owner address which you want to query the approval of"
        },
        "returns": {
          "_0": "bool whether the given operator is approved by the given owner"
        }
      },
      "setApprovalForAll(address,bool)": {
        "details": "Sets or unsets the approval of a given operator An operator is allowed to transfer all tokens of the sender on their behalf",
        "params": {
          "approved": "representing the status of the approval to be set",
          "to": "operator address to set the approval"
        }
      },
      "supportsInterface(bytes4)": {
        "details": "implement supportsInterface(bytes4) using a lookup table"
      }
    },
    "version": 1
  },
  "userdoc": {
    "kind": "user",
    "methods": {},
    "version": 1
  }
}