{
  "contractName": "SolnSquareVerifier",
  "abi": [
    {
      "inputs": [
        {
          "internalType": "address",
          "name": "squareVerifier",
          "type": "address"
        }
      ],
      "stateMutability": "nonpayable",
      "type": "constructor"
    },
    {
      "anonymous": false,
      "inputs": [
        {
          "indexed": true,
          "internalType": "address",
          "name": "owner",
          "type": "address"
        },
        {
          "indexed": true,
          "internalType": "address",
          "name": "approved",
          "type": "address"
        },
        {
          "indexed": true,
          "internalType": "uint256",
          "name": "tokenId",
          "type": "uint256"
        }
      ],
      "name": "Approval",
      "type": "event"
    },
    {
      "anonymous": false,
      "inputs": [
        {
          "indexed": true,
          "internalType": "address",
          "name": "owner",
          "type": "address"
        },
        {
          "indexed": true,
          "internalType": "address",
          "name": "operator",
          "type": "address"
        },
        {
          "indexed": false,
          "internalType": "bool",
          "name": "approved",
          "type": "bool"
        }
      ],
      "name": "ApprovalForAll",
      "type": "event"
    },
    {
      "anonymous": false,
      "inputs": [
        {
          "indexed": false,
          "internalType": "address",
          "name": "newOwner",
          "type": "address"
        }
      ],
      "name": "OwnershipTransferred",
      "type": "event"
    },
    {
      "anonymous": false,
      "inputs": [],
      "name": "Paused",
      "type": "event"
    },
    {
      "anonymous": false,
      "inputs": [
        {
          "indexed": false,
          "internalType": "uint256",
          "name": "index",
          "type": "uint256"
        },
        {
          "indexed": false,
          "internalType": "address",
          "name": "solutionOwner",
          "type": "address"
        }
      ],
      "name": "SolutionSubmitted",
      "type": "event"
    },
    {
      "anonymous": false,
      "inputs": [
        {
          "indexed": true,
          "internalType": "address",
          "name": "from",
          "type": "address"
        },
        {
          "indexed": true,
          "internalType": "address",
          "name": "to",
          "type": "address"
        },
        {
          "indexed": true,
          "internalType": "uint256",
          "name": "tokenId",
          "type": "uint256"
        }
      ],
      "name": "Transfer",
      "type": "event"
    },
    {
      "anonymous": false,
      "inputs": [],
      "name": "Unpaused",
      "type": "event"
    },
    {
      "inputs": [
        {
          "internalType": "address",
          "name": "to",
          "type": "address"
        },
        {
          "internalType": "uint256",
          "name": "tokenId",
          "type": "uint256"
        }
      ],
      "name": "approve",
      "outputs": [],
      "stateMutability": "nonpayable",
      "type": "function"
    },
    {
      "inputs": [
        {
          "internalType": "address",
          "name": "owner",
          "type": "address"
        }
      ],
      "name": "balanceOf",
      "outputs": [
        {
          "internalType": "uint256",
          "name": "",
          "type": "uint256"
        }
      ],
      "stateMutability": "view",
      "type": "function",
      "constant": true
    },
    {
      "inputs": [],
      "name": "baseTokenURI",
      "outputs": [
        {
          "internalType": "string",
          "name": "",
          "type": "string"
        }
      ],
      "stateMutability": "view",
      "type": "function",
      "constant": true
    },
    {
      "inputs": [],
      "name": "contractOwner",
      "outputs": [
        {
          "internalType": "address",
          "name": "",
          "type": "address"
        }
      ],
      "stateMutability": "view",
      "type": "function",
      "constant": true
    },
    {
      "inputs": [
        {
          "internalType": "uint256",
          "name": "tokenId",
          "type": "uint256"
        }
      ],
      "name": "getApproved",
      "outputs": [
        {
          "internalType": "address",
          "name": "",
          "type": "address"
        }
      ],
      "stateMutability": "view",
      "type": "function",
      "constant": true
    },
    {
      "inputs": [
        {
          "internalType": "address",
          "name": "owner",
          "type": "address"
        },
        {
          "internalType": "address",
          "name": "operator",
          "type": "address"
        }
      ],
      "name": "isApprovedForAll",
      "outputs": [
        {
          "internalType": "bool",
          "name": "",
          "type": "bool"
        }
      ],
      "stateMutability": "view",
      "type": "function",
      "constant": true
    },
    {
      "inputs": [
        {
          "internalType": "address",
          "name": "to",
          "type": "address"
        },
        {
          "internalType": "uint256",
          "name": "tokenId",
          "type": "uint256"
        }
      ],
      "name": "mint",
      "outputs": [],
      "stateMutability": "nonpayable",
      "type": "function"
    },
    {
      "inputs": [],
      "name": "name",
      "outputs": [
        {
          "internalType": "string",
          "name": "",
          "type": "string"
        }
      ],
      "stateMutability": "view",
      "type": "function",
      "constant": true
    },
    {
      "inputs": [
        {
          "internalType": "uint256",
          "name": "tokenId",
          "type": "uint256"
        }
      ],
      "name": "ownerOf",
      "outputs": [
        {
          "internalType": "address",
          "name": "",
          "type": "address"
        }
      ],
      "stateMutability": "view",
      "type": "function",
      "constant": true
    },
    {
      "inputs": [
        {
          "internalType": "address",
          "name": "from",
          "type": "address"
        },
        {
          "internalType": "address",
          "name": "to",
          "type": "address"
        },
        {
          "internalType": "uint256",
          "name": "tokenId",
          "type": "uint256"
        }
      ],
      "name": "safeTransferFrom",
      "outputs": [],
      "stateMutability": "nonpayable",
      "type": "function"
    },
    {
      "inputs": [
        {
          "internalType": "address",
          "name": "from",
          "type": "address"
        },
        {
          "internalType": "address",
          "name": "to",
          "type": "address"
        },
        {
          "internalType": "uint256",
          "name": "tokenId",
          "type": "uint256"
        },
        {
          "internalType": "bytes",
          "name": "_data",
          "type": "bytes"
        }
      ],
      "name": "safeTransferFrom",
      "outputs": [],
      "stateMutability": "nonpayable",
      "type": "function"
    },
    {
      "inputs": [
        {
          "internalType": "address",
          "name": "to",
          "type": "address"
        },
        {
          "internalType": "bool",
          "name": "approved",
          "type": "bool"
        }
      ],
      "name": "setApprovalForAll",
      "outputs": [],
      "stateMutability": "nonpayable",
      "type": "function"
    },
    {
      "inputs": [
        {
          "internalType": "bool",
          "name": "isPaused",
          "type": "bool"
        }
      ],
      "name": "setPaused",
      "outputs": [],
      "stateMutability": "nonpayable",
      "type": "function"
    },
    {
      "inputs": [
        {
          "internalType": "bytes4",
          "name": "interfaceId",
          "type": "bytes4"
        }
      ],
      "name": "supportsInterface",
      "outputs": [
        {
          "internalType": "bool",
          "name": "",
          "type": "bool"
        }
      ],
      "stateMutability": "view",
      "type": "function",
      "constant": true
    },
    {
      "inputs": [],
      "name": "symbol",
      "outputs": [
        {
          "internalType": "string",
          "name": "",
          "type": "string"
        }
      ],
      "stateMutability": "view",
      "type": "function",
      "constant": true
    },
    {
      "inputs": [
        {
          "internalType": "uint256",
          "name": "index",
          "type": "uint256"
        }
      ],
      "name": "tokenByIndex",
      "outputs": [
        {
          "internalType": "uint256",
          "name": "",
          "type": "uint256"
        }
      ],
      "stateMutability": "view",
      "type": "function",
      "constant": true
    },
    {
      "inputs": [
        {
          "internalType": "address",
          "name": "owner",
          "type": "address"
        },
        {
          "internalType": "uint256",
          "name": "index",
          "type": "uint256"
        }
      ],
      "name": "tokenOfOwnerByIndex",
      "outputs": [
        {
          "internalType": "uint256",
          "name": "",
          "type": "uint256"
        }
      ],
      "stateMutability": "view",
      "type": "function",
      "constant": true
    },
    {
      "inputs": [
        {
          "internalType": "uint256",
          "name": "tokenId",
          "type": "uint256"
        }
      ],
      "name": "tokenURI",
      "outputs": [
        {
          "internalType": "string",
          "name": "",
          "type": "string"
        }
      ],
      "stateMutability": "view",
      "type": "function",
      "constant": true
    },
    {
      "inputs": [],
      "name": "totalSupply",
      "outputs": [
        {
          "internalType": "uint256",
          "name": "",
          "type": "uint256"
        }
      ],
      "stateMutability": "view",
      "type": "function",
      "constant": true
    },
    {
      "inputs": [
        {
          "internalType": "address",
          "name": "from",
          "type": "address"
        },
        {
          "internalType": "address",
          "name": "to",
          "type": "address"
        },
        {
          "internalType": "uint256",
          "name": "tokenId",
          "type": "uint256"
        }
      ],
      "name": "transferFrom",
      "outputs": [],
      "stateMutability": "nonpayable",
      "type": "function"
    },
    {
      "inputs": [
        {
          "internalType": "address",
          "name": "newOwner",
          "type": "address"
        }
      ],
      "name": "transferOwnership",
      "outputs": [],
      "stateMutability": "nonpayable",
      "type": "function"
    },
    {
      "inputs": [
        {
          "internalType": "address",
          "name": "to",
          "type": "address"
        },
        {
          "internalType": "uint256[2]",
          "name": "a",
          "type": "uint256[2]"
        },
        {
          "internalType": "uint256[2][2]",
          "name": "b",
          "type": "uint256[2][2]"
        },
        {
          "internalType": "uint256[2]",
          "name": "c",
          "type": "uint256[2]"
        },
        {
          "internalType": "uint256[2]",
          "name": "inputs",
          "type": "uint256[2]"
        }
      ],
      "name": "addSolution",
      "outputs": [],
      "stateMutability": "nonpayable",
      "type": "function"
    },
    {
      "inputs": [
        {
          "internalType": "address",
          "name": "to",
          "type": "address"
        },
        {
          "internalType": "uint256",
          "name": "tokenId",
          "type": "uint256"
        },
        {
          "internalType": "uint256[2]",
          "name": "inputs",
          "type": "uint256[2]"
        }
      ],
      "name": "mintOwnershipProvedToken",
      "outputs": [],
      "stateMutability": "nonpayable",
      "type": "function"
    }
  ],
  "bytecode": "0x608060405260008060146101000a81548160ff0219169083151502179055506040518060400160405280601281526020017f48437573746f6d455243373231546f6b656e0000000000000000000000000000815250600e90805190602001906200006b92919062000515565b506040518060400160405280600481526020017f484e465400000000000000000000000000000000000000000000000000000000815250600f9080519060200190620000b992919062000515565b506040518060600160405280603f815260200162003d04603f913960109080519060200190620000eb92919062000515565b50348015620000f957600080fd5b5060405162003d4338038062003d4383398181016040528101906200011f91906200062f565b600e80546200012e9062000690565b80601f01602080910402602001604051908101604052809291908181526020018280546200015c9062000690565b8015620001ad5780601f106200018157610100808354040283529160200191620001ad565b820191906000526020600020905b8154815290600101906020018083116200018f57829003601f168201915b5050505050600f8054620001c19062000690565b80601f0160208091040260200160405190810160405280929190818152602001828054620001ef9062000690565b8015620002405780601f10620002145761010080835404028352916020019162000240565b820191906000526020600020905b8154815290600101906020018083116200022257829003601f168201915b505050505060108054620002549062000690565b80601f0160208091040260200160405190810160405280929190818152602001828054620002829062000690565b8015620002d35780601f10620002a757610100808354040283529160200191620002d3565b820191906000526020600020905b815481529060010190602001808311620002b557829003601f168201915b5050505050620002e933620003f960201b60201c565b60008060146101000a81548160ff0219169083151502179055506200031b6301ffc9a760e01b6200047560201b60201c565b620003336380ac58cd60e01b6200047560201b60201c565b6200034b63780e9d6360e01b6200047560201b60201c565b82600a90805190602001906200036392919062000515565b5081600b90805190602001906200037c92919062000515565b5080600c90805190602001906200039592919062000515565b50620003ae635b5e139f60e01b6200047560201b60201c565b50505080601360006101000a81548173ffffffffffffffffffffffffffffffffffffffff021916908373ffffffffffffffffffffffffffffffffffffffff16021790555050620006f4565b806000806101000a81548173ffffffffffffffffffffffffffffffffffffffff021916908373ffffffffffffffffffffffffffffffffffffffff1602179055507f04dba622d284ed0014ee4b9a6a68386be1a4c08a4913ae272de89199cc686163816040516200046a9190620006d7565b60405180910390a150565b63ffffffff60e01b817bffffffffffffffffffffffffffffffffffffffffffffffffffffffff19161415620004a957600080fd5b6001806000837bffffffffffffffffffffffffffffffffffffffffffffffffffffffff19167bffffffffffffffffffffffffffffffffffffffffffffffffffffffff1916815260200190815260200160002060006101000a81548160ff02191690831515021790555050565b828054620005239062000690565b90600052602060002090601f01602090048101928262000547576000855562000593565b82601f106200056257805160ff191683800117855562000593565b8280016001018555821562000593579182015b828111156200059257825182559160200191906001019062000575565b5b509050620005a29190620005a6565b5090565b5b80821115620005c1576000816000905550600101620005a7565b5090565b600080fd5b600073ffffffffffffffffffffffffffffffffffffffff82169050919050565b6000620005f782620005ca565b9050919050565b6200060981620005ea565b81146200061557600080fd5b50565b6000815190506200062981620005fe565b92915050565b600060208284031215620006485762000647620005c5565b5b6000620006588482850162000618565b91505092915050565b7f4e487b7100000000000000000000000000000000000000000000000000000000600052602260045260246000fd5b60006002820490506001821680620006a957607f821691505b60208210811415620006c057620006bf62000661565b5b50919050565b620006d181620005ea565b82525050565b6000602082019050620006ee6000830184620006c6565b92915050565b61360080620007046000396000f3fe608060405234801561001057600080fd5b506004361061014d5760003560e01c80636352211e116100c3578063c87b56dd1161007c578063c87b56dd146103ac578063ce606ee0146103dc578063d547cfb7146103fa578063e985e9c514610418578063ea95deaf14610448578063f2fde38b146104645761014d565b80636352211e146102da57806370a082311461030a57806395d89b411461033a578063a22cb46514610358578063b88d4fde14610374578063c4d33c85146103905761014d565b806318160ddd1161011557806318160ddd1461020857806323b872dd146102265780632f745c591461024257806340c10f191461027257806342842e0e1461028e5780634f6ccce7146102aa5761014d565b806301ffc9a71461015257806306fdde0314610182578063081812fc146101a0578063095ea7b3146101d057806316c38b3c146101ec575b600080fd5b61016c600480360381019061016791906123e0565b610480565b6040516101799190612428565b60405180910390f35b61018a6104e8565b60405161019791906124dc565b60405180910390f35b6101ba60048036038101906101b59190612534565b61057a565b6040516101c791906125a2565b60405180910390f35b6101ea60048036038101906101e591906125e9565b6105b7565b005b61020660048036038101906102019190612655565b610705565b005b61021061080e565b60405161021d9190612691565b60405180910390f35b610240600480360381019061023b91906126ac565b61081b565b005b61025c600480360381019061025791906125e9565b61083e565b6040516102699190612691565b60405180910390f35b61028c600480360381019061028791906125e9565b6108b8565b005b6102a860048036038101906102a391906126ac565b610927565b005b6102c460048036038101906102bf9190612534565b610947565b6040516102d19190612691565b60405180910390f35b6102f460048036038101906102ef9190612534565b610982565b60405161030191906125a2565b60405180910390f35b610324600480360381019061031f91906126ff565b6109bf565b6040516103319190612691565b60405180910390f35b610342610a0f565b60405161034f91906124dc565b60405180910390f35b610372600480360381019061036d919061272c565b610aa1565b005b61038e600480360381019061038991906128a1565b610bd7565b005b6103aa60048036038101906103a591906129da565b610bfd565b005b6103c660048036038101906103c19190612534565b610e01565b6040516103d391906124dc565b60405180910390f35b6103e4610eb8565b6040516103f191906125a2565b60405180910390f35b610402610ee1565b60405161040f91906124dc565b60405180910390f35b610432600480360381019061042d9190612a2d565b610f73565b60405161043f9190612428565b60405180910390f35b610462600480360381019061045d9190612b1e565b611007565b005b61047e600480360381019061047991906126ff565b611420565b005b600060016000837bffffffffffffffffffffffffffffffffffffffffffffffffffffffff19167bffffffffffffffffffffffffffffffffffffffffffffffffffffffff1916815260200190815260200160002060009054906101000a900460ff169050919050565b6060600a80546104f790612bca565b80601f016020809104026020016040519081016040528092919081815260200182805461052390612bca565b80156105705780601f1061054557610100808354040283529160200191610570565b820191906000526020600020905b81548152906001019060200180831161055357829003601f168201915b5050505050905090565b60006003600083815260200190815260200160002060009054906101000a900473ffffffffffffffffffffffffffffffffffffffff169050919050565b60006105c282610982565b90508073ffffffffffffffffffffffffffffffffffffffff168373ffffffffffffffffffffffffffffffffffffffff1614156105fd57600080fd5b6000610607610eb8565b90508073ffffffffffffffffffffffffffffffffffffffff168473ffffffffffffffffffffffffffffffffffffffff16148061064957506106488285610f73565b5b61065257600080fd5b836003600085815260200190815260200160002060006101000a81548173ffffffffffffffffffffffffffffffffffffffff021916908373ffffffffffffffffffffffffffffffffffffffff160217905550828473ffffffffffffffffffffffffffffffffffffffff168373ffffffffffffffffffffffffffffffffffffffff167f8c5be1e5ebec7d5bd14f71427d1e84f3dd0314c0f7b2291e5b200ac8c7c3b92560405160405180910390a450505050565b60008054906101000a900473ffffffffffffffffffffffffffffffffffffffff1673ffffffffffffffffffffffffffffffffffffffff163373ffffffffffffffffffffffffffffffffffffffff161461075d57600080fd5b600060149054906101000a900460ff161515811515141561077d5761080b565b80600060146101000a81548160ff021916908315150217905550600060149054906101000a900460ff16156107dd577f9e87fac88ff661f02d44f95383c817fece4bce600a3dab7a54406878b965e75260405160405180910390a161080a565b7fa45f47fdea8a1efdd9029a5691c7f759c32b7c698632b563573e155625d1693360405160405180910390a15b5b50565b6000600880549050905090565b61082533826114e3565b61082e57600080fd5b610839838383611578565b505050565b6000610849836109bf565b821061085457600080fd5b600660008473ffffffffffffffffffffffffffffffffffffffff1673ffffffffffffffffffffffffffffffffffffffff16815260200190815260200160002082815481106108a5576108a4612bfc565b5b9060005260206000200154905092915050565b60008054906101000a900473ffffffffffffffffffffffffffffffffffffffff1673ffffffffffffffffffffffffffffffffffffffff163373ffffffffffffffffffffffffffffffffffffffff161461091057600080fd5b61091a828261159c565b610923816115bd565b5050565b61094283838360405180602001604052806000815250610bd7565b505050565b600061095161080e565b821061095c57600080fd5b600882815481106109705761096f612bfc565b5b90600052602060002001549050919050565b60006002600083815260200190815260200160002060009054906101000a900473ffffffffffffffffffffffffffffffffffffffff169050919050565b6000610a08600460008473ffffffffffffffffffffffffffffffffffffffff1673ffffffffffffffffffffffffffffffffffffffff168152602001908152602001600020611695565b9050919050565b6060600b8054610a1e90612bca565b80601f0160208091040260200160405190810160405280929190818152602001828054610a4a90612bca565b8015610a975780601f10610a6c57610100808354040283529160200191610a97565b820191906000526020600020905b815481529060010190602001808311610a7a57829003601f168201915b5050505050905090565b3373ffffffffffffffffffffffffffffffffffffffff168273ffffffffffffffffffffffffffffffffffffffff161415610ada57600080fd5b80600560003373ffffffffffffffffffffffffffffffffffffffff1673ffffffffffffffffffffffffffffffffffffffff16815260200190815260200160002060008473ffffffffffffffffffffffffffffffffffffffff1673ffffffffffffffffffffffffffffffffffffffff16815260200190815260200160002060006101000a81548160ff0219169083151502179055508173ffffffffffffffffffffffffffffffffffffffff163373ffffffffffffffffffffffffffffffffffffffff167f17307eab39ab6107e8899845ad3d59bd9653f200f220920489ca2b5937696c3183604051610bcb9190612428565b60405180910390a35050565b610be284848461081b565b610bee848484846116a3565b610bf757600080fd5b50505050565b60008054906101000a900473ffffffffffffffffffffffffffffffffffffffff1673ffffffffffffffffffffffffffffffffffffffff163373ffffffffffffffffffffffffffffffffffffffff1614610c5557600080fd5b6000610c60826117ab565b905080601160008381526020019081526020016000206000015414610cba576040517f08c379a0000000000000000000000000000000000000000000000000000000008152600401610cb190612c9d565b60405180910390fd5b6011600082815260200190815260200160002060010160149054906101000a900460ff1615610d1e576040517f08c379a0000000000000000000000000000000000000000000000000000000008152600401610d1590612d2f565b60405180910390fd5b8373ffffffffffffffffffffffffffffffffffffffff166011600083815260200190815260200160002060010160009054906101000a900473ffffffffffffffffffffffffffffffffffffffff1673ffffffffffffffffffffffffffffffffffffffff1614610dc2576040517f08c379a0000000000000000000000000000000000000000000000000000000008152600401610db990612dc1565b60405180910390fd5b60016011600083815260200190815260200160002060010160146101000a81548160ff021916908315150217905550610dfb84846108b8565b50505050565b6060610e0c826117de565b610e1557600080fd5b600d60008381526020019081526020016000208054610e3390612bca565b80601f0160208091040260200160405190810160405280929190818152602001828054610e5f90612bca565b8015610eac5780601f10610e8157610100808354040283529160200191610eac565b820191906000526020600020905b815481529060010190602001808311610e8f57829003601f168201915b50505050509050919050565b60008060009054906101000a900473ffffffffffffffffffffffffffffffffffffffff16905090565b6060600c8054610ef090612bca565b80601f0160208091040260200160405190810160405280929190818152602001828054610f1c90612bca565b8015610f695780601f10610f3e57610100808354040283529160200191610f69565b820191906000526020600020905b815481529060010190602001808311610f4c57829003601f168201915b5050505050905090565b6000600560008473ffffffffffffffffffffffffffffffffffffffff1673ffffffffffffffffffffffffffffffffffffffff16815260200190815260200160002060008373ffffffffffffffffffffffffffffffffffffffff1673ffffffffffffffffffffffffffffffffffffffff16815260200190815260200160002060009054906101000a900460ff16905092915050565b60008054906101000a900473ffffffffffffffffffffffffffffffffffffffff1673ffffffffffffffffffffffffffffffffffffffff163373ffffffffffffffffffffffffffffffffffffffff161461105f57600080fd5b600061106c858585611850565b9050601360009054906101000a900473ffffffffffffffffffffffffffffffffffffffff1673ffffffffffffffffffffffffffffffffffffffff166343cd76fc82846040518363ffffffff1660e01b81526004016110cb929190612f8f565b602060405180830381865afa1580156110e8573d6000803e3d6000fd5b505050506040513d601f19601f8201168201806040525081019061110c9190612fcf565b61114b576040517f08c379a000000000000000000000000000000000000000000000000000000000815260040161114290612c9d565b60405180910390fd5b6000611156836117ab565b905060006011600083815260200190815260200160002060000154146111b1576040517f08c379a00000000000000000000000000000000000000000000000000000000081526004016111a890613048565b60405180910390fd5b6011600082815260200190815260200160002060010160149054906101000a900460ff1615611215576040517f08c379a000000000000000000000000000000000000000000000000000000000815260040161120c906130da565b60405180910390fd5b806011600083815260200190815260200160002060000181905550866011600083815260200190815260200160002060010160006101000a81548173ffffffffffffffffffffffffffffffffffffffff021916908373ffffffffffffffffffffffffffffffffffffffff16021790555060006011600083815260200190815260200160002060010160146101000a81548160ff0219169083151502179055506012601160008381526020019081526020016000209080600181540180825580915050600190039060005260206000209060020201600090919091909150600082015481600001556001820160009054906101000a900473ffffffffffffffffffffffffffffffffffffffff168160010160006101000a81548173ffffffffffffffffffffffffffffffffffffffff021916908373ffffffffffffffffffffffffffffffffffffffff1602179055506001820160149054906101000a900460ff168160010160146101000a81548160ff02191690831515021790555050507f329e271c3661a59f0033b686a9a95b6691445bf3b5707e10995a485a6fafd68e60116000838152602001908152602001600020600001546011600084815260200190815260200160002060010160009054906101000a900473ffffffffffffffffffffffffffffffffffffffff1660405161140f9291906130fa565b60405180910390a150505050505050565b60008054906101000a900473ffffffffffffffffffffffffffffffffffffffff1673ffffffffffffffffffffffffffffffffffffffff163373ffffffffffffffffffffffffffffffffffffffff161461147857600080fd5b6114978173ffffffffffffffffffffffffffffffffffffffff16611960565b156114d7576040517f08c379a00000000000000000000000000000000000000000000000000000000081526004016114ce90613195565b60405180910390fd5b6114e081611973565b50565b6000806114ef83610982565b90508073ffffffffffffffffffffffffffffffffffffffff168473ffffffffffffffffffffffffffffffffffffffff16148061155e57508373ffffffffffffffffffffffffffffffffffffffff166115468461057a565b73ffffffffffffffffffffffffffffffffffffffff16145b8061156f575061156e8185610f73565b5b91505092915050565b6115838383836119ed565b61158d8382611bf7565b6115978282611db5565b505050565b6115a68282611e79565b6115b08282611db5565b6115b981611fde565b5050565b6115c6816117de565b6115cf57600080fd5b61166b600c80546115df90612bca565b80601f016020809104026020016040519081016040528092919081815260200182805461160b90612bca565b80156116585780601f1061162d57610100808354040283529160200191611658565b820191906000526020600020905b81548152906001019060200180831161163b57829003601f168201915b505050505061166683612027565b612188565b600d6000838152602001908152602001600020908051906020019061169192919061223c565b5050565b600081600001549050919050565b60006116c48473ffffffffffffffffffffffffffffffffffffffff16611960565b6116d157600190506117a3565b60008473ffffffffffffffffffffffffffffffffffffffff1663150b7a02338887876040518563ffffffff1660e01b8152600401611712949392919061320a565b6020604051808303816000875af1158015611731573d6000803e3d6000fd5b505050506040513d601f19601f82011682018060405250810190611755919061326b565b905063150b7a0260e01b7bffffffffffffffffffffffffffffffffffffffffffffffffffffffff1916817bffffffffffffffffffffffffffffffffffffffffffffffffffffffff1916149150505b949350505050565b6000816040516020016117be9190613321565b6040516020818303038152906040528051906020012060001c9050919050565b6000806002600084815260200190815260200160002060009054906101000a900473ffffffffffffffffffffffffffffffffffffffff169050600073ffffffffffffffffffffffffffffffffffffffff168173ffffffffffffffffffffffffffffffffffffffff161415915050919050565b6118586122c2565b600060405180604001604052808660006002811061187957611878612bfc565b5b602002015181526020018660016002811061189757611896612bfc565b5b6020020151815250905060006040518060400160405280866000600281106118c2576118c1612bfc565b5b60200201518152602001866001600281106118e0576118df612bfc565b5b60200201518152509050600060405180604001604052808660006002811061190b5761190a612bfc565b5b602002015181526020018660016002811061192957611928612bfc565b5b6020020151815250905060006040518060600160405280858152602001848152602001838152509050809450505050509392505050565b600080823b905060008111915050919050565b806000806101000a81548173ffffffffffffffffffffffffffffffffffffffff021916908373ffffffffffffffffffffffffffffffffffffffff1602179055507f04dba622d284ed0014ee4b9a6a68386be1a4c08a4913ae272de89199cc686163816040516119e291906125a2565b60405180910390a150565b6002600082815260200190815260200160002060009054906101000a900473ffffffffffffffffffffffffffffffffffffffff1673ffffffffffffffffffffffffffffffffffffffff168373ffffffffffffffffffffffffffffffffffffffff1614611a5857600080fd5b611a778273ffffffffffffffffffffffffffffffffffffffff16611960565b15611a8157600080fd5b6003600082815260200190815260200160002060006101000a81549073ffffffffffffffffffffffffffffffffffffffff0219169055611afe600460008573ffffffffffffffffffffffffffffffffffffffff1673ffffffffffffffffffffffffffffffffffffffff1681526020019081526020016000206121b4565b611b45600460008473ffffffffffffffffffffffffffffffffffffffff1673ffffffffffffffffffffffffffffffffffffffff168152602001908152602001600020612210565b816002600083815260200190815260200160002060006101000a81548173ffffffffffffffffffffffffffffffffffffffff021916908373ffffffffffffffffffffffffffffffffffffffff160217905550808273ffffffffffffffffffffffffffffffffffffffff168473ffffffffffffffffffffffffffffffffffffffff167fddf252ad1be2c89b69c2b068fc378daa952ba7f163c4a11628f55a4df523b3ef60405160405180910390a4505050565b6000611c4f6001600660008673ffffffffffffffffffffffffffffffffffffffff1673ffffffffffffffffffffffffffffffffffffffff1681526020019081526020016000208054905061222690919063ffffffff16565b9050600060076000848152602001908152602001600020549050818114611d4a576000600660008673ffffffffffffffffffffffffffffffffffffffff1673ffffffffffffffffffffffffffffffffffffffff1681526020019081526020016000208381548110611cc357611cc2612bfc565b5b9060005260206000200154905080600660008773ffffffffffffffffffffffffffffffffffffffff1673ffffffffffffffffffffffffffffffffffffffff1681526020019081526020016000208381548110611d2257611d21612bfc565b5b9060005260206000200181905550816007600083815260200190815260200160002081905550505b600660008573ffffffffffffffffffffffffffffffffffffffff1673ffffffffffffffffffffffffffffffffffffffff168152602001908152602001600020805480611d9957611d9861333c565b5b6001900381819060005260206000200160009055905550505050565b600660008373ffffffffffffffffffffffffffffffffffffffff1673ffffffffffffffffffffffffffffffffffffffff168152602001908152602001600020805490506007600083815260200190815260200160002081905550600660008373ffffffffffffffffffffffffffffffffffffffff1673ffffffffffffffffffffffffffffffffffffffff1681526020019081526020016000208190806001815401808255809150506001900390600052602060002001600090919091909150555050565b600073ffffffffffffffffffffffffffffffffffffffff166002600083815260200190815260200160002060009054906101000a900473ffffffffffffffffffffffffffffffffffffffff1673ffffffffffffffffffffffffffffffffffffffff1614611ee557600080fd5b816002600083815260200190815260200160002060006101000a81548173ffffffffffffffffffffffffffffffffffffffff021916908373ffffffffffffffffffffffffffffffffffffffff160217905550611f7e600460008473ffffffffffffffffffffffffffffffffffffffff1673ffffffffffffffffffffffffffffffffffffffff168152602001908152602001600020612210565b808273ffffffffffffffffffffffffffffffffffffffff16600073ffffffffffffffffffffffffffffffffffffffff167fddf252ad1be2c89b69c2b068fc378daa952ba7f163c4a11628f55a4df523b3ef60405160405180910390a45050565b6008805490506009600083815260200190815260200160002081905550600881908060018154018082558091505060019003906000526020600020016000909190919091505550565b6060600082141561206f576040518060400160405280600181526020017f30000000000000000000000000000000000000000000000000000000000000008152509050612183565b600082905060005b600082146120a157808061208a9061339a565b915050600a8261209a9190613412565b9150612077565b60008167ffffffffffffffff8111156120bd576120bc612776565b5b6040519080825280601f01601f1916602001820160405280156120ef5781602001600182028036833780820191505090505b5090505b6000851461217c576001826121089190613443565b9150600a856121179190613477565b603061212391906134a8565b60f81b81838151811061213957612138612bfc565b5b60200101907effffffffffffffffffffffffffffffffffffffffffffffffffffffffffffff1916908160001a905350600a856121759190613412565b94506120f3565b8093505050505b919050565b6060828260405160200161219d92919061353a565b604051602081830303815290604052905092915050565b60008160000154905060008111612200576040517f08c379a00000000000000000000000000000000000000000000000000000000081526004016121f7906135aa565b60405180910390fd5b6001810382600001819055505050565b6001816000016000828254019250508190555050565b600081836122349190613443565b905092915050565b82805461224890612bca565b90600052602060002090601f01602090048101928261226a57600085556122b1565b82601f1061228357805160ff19168380011785556122b1565b828001600101855582156122b1579182015b828111156122b0578251825591602001919060010190612295565b5b5090506122be91906122f5565b5090565b60405180606001604052806122d5612312565b81526020016122e261232c565b81526020016122ef612312565b81525090565b5b8082111561230e5760008160009055506001016122f6565b5090565b604051806040016040528060008152602001600081525090565b604051806040016040528061233f612352565b815260200161234c612352565b81525090565b6040518060400160405280600290602082028036833780820191505090505090565b6000604051905090565b600080fd5b600080fd5b60007fffffffff0000000000000000000000000000000000000000000000000000000082169050919050565b6123bd81612388565b81146123c857600080fd5b50565b6000813590506123da816123b4565b92915050565b6000602082840312156123f6576123f561237e565b5b6000612404848285016123cb565b91505092915050565b60008115159050919050565b6124228161240d565b82525050565b600060208201905061243d6000830184612419565b92915050565b600081519050919050565b600082825260208201905092915050565b60005b8381101561247d578082015181840152602081019050612462565b8381111561248c576000848401525b50505050565b6000601f19601f8301169050919050565b60006124ae82612443565b6124b8818561244e565b93506124c881856020860161245f565b6124d181612492565b840191505092915050565b600060208201905081810360008301526124f681846124a3565b905092915050565b6000819050919050565b612511816124fe565b811461251c57600080fd5b50565b60008135905061252e81612508565b92915050565b60006020828403121561254a5761254961237e565b5b60006125588482850161251f565b91505092915050565b600073ffffffffffffffffffffffffffffffffffffffff82169050919050565b600061258c82612561565b9050919050565b61259c81612581565b82525050565b60006020820190506125b76000830184612593565b92915050565b6125c681612581565b81146125d157600080fd5b50565b6000813590506125e3816125bd565b92915050565b60008060408385031215612600576125ff61237e565b5b600061260e858286016125d4565b925050602061261f8582860161251f565b9150509250929050565b6126328161240d565b811461263d57600080fd5b50565b60008135905061264f81612629565b92915050565b60006020828403121561266b5761266a61237e565b5b600061267984828501612640565b91505092915050565b61268b816124fe565b82525050565b60006020820190506126a66000830184612682565b92915050565b6000806000606084860312156126c5576126c461237e565b5b60006126d3868287016125d4565b93505060206126e4868287016125d4565b92505060406126f58682870161251f565b9150509250925092565b6000602082840312156127155761271461237e565b5b6000612723848285016125d4565b91505092915050565b600080604083850312156127435761274261237e565b5b6000612751858286016125d4565b925050602061276285828601612640565b9150509250929050565b600080fd5b600080fd5b7f4e487b7100000000000000000000000000000000000000000000000000000000600052604160045260246000fd5b6127ae82612492565b810181811067ffffffffffffffff821117156127cd576127cc612776565b5b80604052505050565b60006127e0612374565b90506127ec82826127a5565b919050565b600067ffffffffffffffff82111561280c5761280b612776565b5b61281582612492565b9050602081019050919050565b82818337600083830152505050565b600061284461283f846127f1565b6127d6565b9050828152602081018484840111156128605761285f612771565b5b61286b848285612822565b509392505050565b600082601f8301126128885761288761276c565b5b8135612898848260208601612831565b91505092915050565b600080600080608085870312156128bb576128ba61237e565b5b60006128c9878288016125d4565b94505060206128da878288016125d4565b93505060406128eb8782880161251f565b925050606085013567ffffffffffffffff81111561290c5761290b612383565b5b61291887828801612873565b91505092959194509250565b600067ffffffffffffffff82111561293f5761293e612776565b5b602082029050919050565b600080fd5b600061296261295d84612924565b6127d6565b9050806020840283018581111561297c5761297b61294a565b5b835b818110156129a55780612991888261251f565b84526020840193505060208101905061297e565b5050509392505050565b600082601f8301126129c4576129c361276c565b5b60026129d184828561294f565b91505092915050565b6000806000608084860312156129f3576129f261237e565b5b6000612a01868287016125d4565b9350506020612a128682870161251f565b9250506040612a23868287016129af565b9150509250925092565b60008060408385031215612a4457612a4361237e565b5b6000612a52858286016125d4565b9250506020612a63858286016125d4565b9150509250929050565b600067ffffffffffffffff821115612a8857612a87612776565b5b602082029050919050565b6000612aa6612aa184612a6d565b6127d6565b90508060408402830185811115612ac057612abf61294a565b5b835b81811015612ae95780612ad588826129af565b845260208401935050604081019050612ac2565b5050509392505050565b600082601f830112612b0857612b0761276c565b5b6002612b15848285612a93565b91505092915050565b60008060008060006101608688031215612b3b57612b3a61237e565b5b6000612b49888289016125d4565b9550506020612b5a888289016129af565b9450506060612b6b88828901612af3565b93505060e0612b7c888289016129af565b925050610120612b8e888289016129af565b9150509295509295909350565b7f4e487b7100000000000000000000000000000000000000000000000000000000600052602260045260246000fd5b60006002820490506001821680612be257607f821691505b60208210811415612bf657612bf5612b9b565b5b50919050565b7f4e487b7100000000000000000000000000000000000000000000000000000000600052603260045260246000fd5b7f50726f6f6620617267756d656e747320616e6420696e7075742070726f76696460008201527f65642063616e206e6f7420626520766572696669656400000000000000000000602082015250565b6000612c8760368361244e565b9150612c9282612c2b565b604082019050919050565b60006020820190508181036000830152612cb681612c7a565b9050919050565b7f5468697320736f6c7574696f6e2077617320616c72656164792075736564206260008201527f65666f7265000000000000000000000000000000000000000000000000000000602082015250565b6000612d1960258361244e565b9150612d2482612cbd565b604082019050919050565b60006020820190508181036000830152612d4881612d0c565b9050919050565b7f54686520746f2f6f776e65722070726f7669646564206973206469666665726560008201527f6e74207468616e207765686e20616464536f6c7574696f6e0000000000000000602082015250565b6000612dab60388361244e565b9150612db682612d4f565b604082019050919050565b60006020820190508181036000830152612dda81612d9e565b9050919050565b612dea816124fe565b82525050565b604082016000820151612e066000850182612de1565b506020820151612e196020850182612de1565b50505050565b600060029050919050565b600081905092915050565b6000819050919050565b6000612e4b8383612de1565b60208301905092915050565b6000602082019050919050565b612e6d81612e1f565b612e778184612e2a565b9250612e8282612e35565b8060005b83811015612eb3578151612e9a8782612e3f565b9650612ea583612e57565b925050600181019050612e86565b505050505050565b608082016000820151612ed16000850182612e64565b506020820151612ee46040850182612e64565b50505050565b61010082016000820151612f016000850182612df0565b506020820151612f146040850182612ebb565b506040820151612f2760c0850182612df0565b50505050565b600081905092915050565b612f4181612e1f565b612f4b8184612f2d565b9250612f5682612e35565b8060005b83811015612f87578151612f6e8782612e3f565b9650612f7983612e57565b925050600181019050612f5a565b505050505050565b600061014082019050612fa56000830185612eea565b612fb3610100830184612f38565b9392505050565b600081519050612fc981612629565b92915050565b600060208284031215612fe557612fe461237e565b5b6000612ff384828501612fba565b91505092915050565b7f5468697320736f6c7574696f6e2077617320616c726561647920616464656400600082015250565b6000613032601f8361244e565b915061303d82612ffc565b602082019050919050565b6000602082019050818103600083015261306181613025565b9050919050565b7f5468697320736f6c7574696f6e2077617320616c72656164792075736564207460008201527f6f206d696e74206120746f6b656e000000000000000000000000000000000000602082015250565b60006130c4602e8361244e565b91506130cf82613068565b604082019050919050565b600060208201905081810360008301526130f3816130b7565b9050919050565b600060408201905061310f6000830185612682565b61311c6020830184612593565b9392505050565b7f4f776e6572736869702063616e206e6f74206265207472616e7366657272656460008201527f20746f206120636f6e7472616374206164647265737300000000000000000000602082015250565b600061317f60368361244e565b915061318a82613123565b604082019050919050565b600060208201905081810360008301526131ae81613172565b9050919050565b600081519050919050565b600082825260208201905092915050565b60006131dc826131b5565b6131e681856131c0565b93506131f681856020860161245f565b6131ff81612492565b840191505092915050565b600060808201905061321f6000830187612593565b61322c6020830186612593565b6132396040830185612682565b818103606083015261324b81846131d1565b905095945050505050565b600081519050613265816123b4565b92915050565b6000602082840312156132815761328061237e565b5b600061328f84828501613256565b91505092915050565b600081905092915050565b6132ac816124fe565b82525050565b60006132be83836132a3565b60208301905092915050565b6132d381612e1f565b6132dd8184613298565b92506132e882612e35565b8060005b8381101561331957815161330087826132b2565b965061330b83612e57565b9250506001810190506132ec565b505050505050565b600061332d82846132ca565b60408201915081905092915050565b7f4e487b7100000000000000000000000000000000000000000000000000000000600052603160045260246000fd5b7f4e487b7100000000000000000000000000000000000000000000000000000000600052601160045260246000fd5b60006133a5826124fe565b91507fffffffffffffffffffffffffffffffffffffffffffffffffffffffffffffffff8214156133d8576133d761336b565b5b600182019050919050565b7f4e487b7100000000000000000000000000000000000000000000000000000000600052601260045260246000fd5b600061341d826124fe565b9150613428836124fe565b925082613438576134376133e3565b5b828204905092915050565b600061344e826124fe565b9150613459836124fe565b92508282101561346c5761346b61336b565b5b828203905092915050565b6000613482826124fe565b915061348d836124fe565b92508261349d5761349c6133e3565b5b828206905092915050565b60006134b3826124fe565b91506134be836124fe565b9250827fffffffffffffffffffffffffffffffffffffffffffffffffffffffffffffffff038211156134f3576134f261336b565b5b828201905092915050565b600081905092915050565b600061351482612443565b61351e81856134fe565b935061352e81856020860161245f565b80840191505092915050565b60006135468285613509565b91506135528284613509565b91508190509392505050565b7f436f756e7465723a2064656372656d656e74206f766572666c6f770000000000600082015250565b6000613594601b8361244e565b915061359f8261355e565b602082019050919050565b600060208201905081810360008301526135c381613587565b905091905056fea2646970667358221220d4150240762ddcd26c12f25f2c72facf4eb53c2370636ff810bc511ec5c1c48464736f6c634300080b003368747470733a2f2f73332d75732d776573742d322e616d617a6f6e6177732e636f6d2f756461636974792d626c6f636b636861696e2f63617073746f6e652f",
  "immutableReferences": {},
  "source": "// SPDX-License-Identifier: MIT\npragma solidity ^0.8.0;\n\n// TODO define a contract call to the zokrates generated solidity contract <Verifier> or <renamedVerifier>\n// TODO define another contract named SolnSquareVerifier that inherits from your ERC721Mintable class\n// TODO define a solutions struct that can hold an index & an address\n// TODO define an array of the above struct\n// TODO define a mapping to store unique solutions submitted\n// TODO Create an event to emit when a solution is added\n// TODO Create a function to add the solutions to the array and emit the event\n// TODO Create a function to mint new NFT only after the solution has been verified\n//  - make sure the solution is unique (has not been used before)\n//  - make sure you handle metadata as well as tokenSuplly\n\nimport \"./ERC721MintableComplete.sol\";\nimport \"./IVerifier.sol\";\n\ncontract SolnSquareVerifier is ERC721MintableComplete {\n    event SolutionSubmitted(uint256 index, address solutionOwner);\n\n    struct Solution {\n        uint256 index;\n        address solutionOwner;\n        bool isMinted;\n    }\n\n    mapping(uint256 => Solution) mapSolutions;\n\n    Solution[] solutions;\n\n    IVerifier private verifier;\n\n    constructor(address squareVerifier) {\n        verifier = IVerifier(squareVerifier);\n    }\n\n    function addSolution(\n        address to,\n        uint256[2] memory a,\n        uint256[2][2] memory b,\n        uint256[2] memory c,\n        uint256[2] memory inputs\n    ) external onlyOwner {\n        IVerifier.Proof memory proof = _createtProofObject(a, b, c);\n        require(\n            verifier.verifyTx(proof, inputs),\n            \"Proof arguments and input provided can not be verified\"\n        );\n        uint256 key = _getInputsKey(inputs);\n        require(\n            mapSolutions[key].index == 0,\n            \"This solution was already added\"\n        );\n        require(\n            !mapSolutions[key].isMinted,\n            \"This solution was already used to mint a token\"\n        );\n\n        mapSolutions[key].index = key;\n        mapSolutions[key].solutionOwner = to;\n        mapSolutions[key].isMinted = false;\n\n        solutions.push(mapSolutions[key]);\n\n        emit SolutionSubmitted(\n            mapSolutions[key].index,\n            mapSolutions[key].solutionOwner\n        );\n    }\n\n    function mintOwnershipProvedToken(\n        address to,\n        uint256 tokenId,\n        uint256[2] memory inputs\n    ) external onlyOwner {\n        uint256 key = _getInputsKey(inputs);\n        require(\n            mapSolutions[key].index == key,\n            \"Proof arguments and input provided can not be verified\"\n        );\n        require(\n            !mapSolutions[key].isMinted,\n            \"This solution was already used before\"\n        );\n        require(\n            mapSolutions[key].solutionOwner == to,\n            \"The to/owner provided is different than wehn addSolution\"\n        );\n\n        mapSolutions[key].isMinted = true;\n\n        super.mint(to, tokenId); // emits Transfer\n    }\n\n    function _createtProofObject(\n        uint256[2] memory a,\n        uint256[2][2] memory b,\n        uint256[2] memory c\n    ) private pure returns (IVerifier.Proof memory) {\n        Pairing.G1Point memory point_a = Pairing.G1Point({X: a[0], Y: a[1]});\n        Pairing.G2Point memory point_b = Pairing.G2Point({X: b[0], Y: b[1]});\n        Pairing.G1Point memory point_c = Pairing.G1Point({X: c[0], Y: c[1]});\n        IVerifier.Proof memory proof = IVerifier.Proof({\n            a: point_a,\n            b: point_b,\n            c: point_c\n        });\n        return proof;\n    }\n\n    function _getInputsKey(uint256[2] memory inputs)\n        private\n        pure\n        returns (uint256)\n    {\n        return uint256(keccak256(abi.encodePacked(inputs)));\n    }\n}\n",
  "sourcePath": "/Users/hossam.magdy/src/github.com/hossam-magdy/web3/Project.Capstone/contracts/SolnSquareVerifier.sol",
  "compiler": {
    "name": "solc",
    "version": "0.8.11+commit.d7f03943.Emscripten.clang"
  },
  "schemaVersion": "3.4.4",
  "updatedAt": "2022-01-01T13:53:51.578Z",
  "networkType": "ethereum",
  "devdoc": {
    "kind": "dev",
    "methods": {
      "isApprovedForAll(address,address)": {
        "details": "Tells whether an operator is approved by a given owner",
        "params": {
          "operator": "operator address which you want to query the approval of",
          "owner": "owner address which you want to query the approval of"
        },
        "returns": {
          "_0": "bool whether the given operator is approved by the given owner"
        }
      },
      "setApprovalForAll(address,bool)": {
        "details": "Sets or unsets the approval of a given operator An operator is allowed to transfer all tokens of the sender on their behalf",
        "params": {
          "approved": "representing the status of the approval to be set",
          "to": "operator address to set the approval"
        }
      },
      "supportsInterface(bytes4)": {
        "details": "implement supportsInterface(bytes4) using a lookup table"
      },
      "tokenByIndex(uint256)": {
        "details": "Gets the token ID at a given index of all the tokens in this contract Reverts if the index is greater or equal to the total number of tokens",
        "params": {
          "index": "uint256 representing the index to be accessed of the tokens list"
        },
        "returns": {
          "_0": "uint256 token ID at the given index of the tokens list"
        }
      },
      "tokenOfOwnerByIndex(address,uint256)": {
        "details": "Gets the token ID at a given index of the tokens list of the requested owner",
        "params": {
          "index": "uint256 representing the index to be accessed of the requested tokens list",
          "owner": "address owning the tokens list to be accessed"
        },
        "returns": {
          "_0": "uint256 token ID at the given index of the tokens list owned by the requested address"
        }
      },
      "totalSupply()": {
        "details": "Gets the total amount of tokens stored by the contract",
        "returns": {
          "_0": "uint256 representing the total amount of tokens"
        }
      }
    },
    "version": 1
  },
  "userdoc": {
    "kind": "user",
    "methods": {},
    "version": 1
  }
}